:020000040800F2
:1000000040050020DD0100083B140008191300081A
:1000100039140008E9020008C116000800000000B9
:10002000000000000000000000000000D1150008E2
:1000300081030008000000003D140008D3150008EB
:10004000F7010008F7010008F7010008F7010008B0
:10005000F7010008F7010008F7010008F7010008A0
:10006000F7010008F7010008F7010008F701000890
:10007000F7010008F7010008F7010008F701000880
:10008000F7010008F7010008F7010008F701000870
:10009000F7010008F7010008F7010008F701000860
:1000A000F7010008F7010008F7010008F701000850
:1000B000F7010008F7010008F7010008F701000840
:1000C000F7010008F7010008F7010008F701000830
:1000D000F7010008F7010008F7010008F701000820
:1000E000F7010008F7010008F7010008F701000810
:1000F000F7010008F7010008F7010008F701000800
:10010000F7010008F7010008F7010008F7010008EF
:10011000F7010008F7010008F7010008F7010008DF
:10012000F7010008F7010008F7010008ED020008D8
:10013000F9020008F7010008F7010008F7010008BC
:10014000F7010008F7010008F7010008F7010008AF
:10015000F7010008F7010008F7010008F70100089F
:10016000F7010008F7010008F7010008F70100088F
:10017000F7010008F7010008F7010008000000007F
:10018000F7010008F7010008F7010008F70100086F
:10019000F701000841140008F7010008F701000802
:1001A000F7010008F7010008F7010008F70100084F
:1001B000F7010008F7010008F7010008F70100083F
:1001C000F7010008F7010008DFF80CD000F07AF81A
:1001D00000480047051700084005002006488047F2
:1001E00006480047FEE7FEE7FEE7FEE7FEE7FEE71C
:1001F000FEE7FEE7FEE7FEE76D160008C90100080E
:100200002DE9F05F0546002092469B46884606464B
:10021000814640241BE0284641464746224600F0DE
:1002200041F853465A46C01A914110D31146184618
:10023000224600F028F82D1A67EB01084F462246A7
:100240000120002100F01FF817EB00094E41201E8D
:10025000A4F10104DFDC484631462A464346BDE8A6
:10026000F09FD2B201E000F8012B491EFBD270478B
:100270000022F6E710B513460A4604461946FFF772
:10028000F0FF204610BD202A04DB203A00FA02F1DC
:10029000002070479140C2F1200320FA03F3194374
:1002A00090407047202A04DB203A21FA02F0002116
:1002B000704721FA02F3D040C2F120029140084376
:1002C00019467047064C074D06E0E06840F0010310
:1002D00094E8070098471034AC42F6D3FFF778FF54
:1002E000B0170008D0170008FEE70000014800F032
:1002F0005BB800007C000020014800F055B8000009
:10030000DC00002001681823CAB2103AB2FBF3F2F5
:10031000054B6FF30901032A9B5CC36500D9091DD6
:1003200081650846704700009817000810B583697A
:100330004FF0C074826A0146002053B1B3F5005FEC
:1003400015D072B1012A0CD0022A0AD0032A09D191
:1003500004E01AB1012A06D0022A03D1C96AC901F0
:1003600000D5012010BDC96AA142FAD010BD002AF3
:10037000F7D0012AF2D0022AF3D0032AF3D010BD1D
:100380007047704790F83510022903D080214165ED
:1003900001207047052180F835100068016821F0C0
:1003A00001010160002070472DE9F84304464FF039
:1003B0000009644B0820CDF800904FF41652A56D4B
:1003C00094F85C101B682E68B3FBF2F700FA01F199
:1003D00031420FD021680A6852070BD50A6822F013
:1003E00004020A6094F85C108840A860606D40F0D8
:1003F0000100606594F85C104FF0010808FA01F004
:10040000304208D021684969090604D5A860606DAA
:1004100040F00200606594F85C100420884030428F
:1004200008D021680968890704D5A860606D40F08C
:100430000400606594F85C1010208840304218D0A9
:1004400021680968090714D5A86020680168490374
:1004500004D50068000308D5A16C07E00168C90550
:1004600003D4016821F008010160216C09B1204624
:10047000884794F85C1020208840304231D02168B1
:100480000968C9062DD5A86094F8350005282068AC
:10049000016806D0490347D5006800031DD4616C8C
:1004A0001CE021F0160101602068416921F0800103
:1004B0004161206C08B9A06C20B12068016821F06E
:1004C0000801016094F85C303F229A40AA6084F8E9
:1004D000349084F83580216D1FE0E16B09B120462E
:1004E0008847606D00282BD0606DC00714D00520B0
:1004F00084F835002068016821F00101016000984E
:10050000401C0090B84203D820680068C007F6D1AC
:1005100084F8349084F83580E16C002910D001B063
:100520002046BDE8F04308470168C905D5D40368F3
:1005300023F01003036084F8349084F83580CCE70E
:10054000BDE8F883140000202DE9F047044600F0D0
:1005500071F9054664B14FF0000984F83490022126
:1005600084F835102068016821F0010101600EE077
:100570000120BDE8F08700BF00F05CF9401B0528B2
:1005800005D920216165032084F83500F1E7206852
:100590000068C007F0D1D4E90020D4E90251D4E9C1
:1005A000043C284304F1180519430843116895E8F1
:1005B000E00140EA0C001C4B2843194040EA0600C9
:1005C00040EA0700B8F1040F40EA010003D1D4E982
:1005D0000B1319430843106020680126656A4069BF
:1005E000042D20F0070045EA00050CD1D4E90A01EA
:1005F000054341B12046FFF799FE20B140206065D8
:1006000084F83560B4E7206845612046FFF77AFE3C
:1006100094F85C303F229A408260C4F8549084F889
:1006200035600020A5E700003F8010F070B504465B
:1006300000F000F90546601C02D00448007804442C
:1006400000F0F8F8401BA042FAD370BD080000206B
:100650002DE9F84FDFF89CE100224FF001084FF040
:10066000030B4FF00F0A00BF0B6808FA02F4234097
:10067000A34271D14D68022D01D0122D0FD1D508A2
:100680000E69570700EB8505A9462D6AFF0E0AFA89
:1006900007FCBE4025EA0C052E43C9F820600F79FF
:1006A000550006680BFA05FC07F0030726EA0C065E
:1006B000AF40374307604E68012E05D0022E03D0AD
:1006C000112E01D0122E0ED18668CF6826EA0C06B4
:1006D000AF403743876046680F79A643C7F30017DA
:1006E000974037434760C4688E6824EA0C04AE40E4
:1006F0002643C6604C68E40075D53F4C256845F438
:1007000080452560246822F00306950704F48044A0
:1007100000943A4C2D0F2644D6F80848DFF8E0C084
:100720000AFA05F7604524EA070401D100272EE004
:10073000344FB84201D1012729E0334FB84201D1EB
:10074000022724E0314FB84201D103271FE0304F88
:10075000B84202D104271AE045E02E4FB84201D139
:10076000052714E02C4FB84201D106270FE02B4F8C
:10077000B84201D107270AE0294FB84201D1082722
:1007800005E0284FB84201D1092700E00A27AF4011
:1007900027437546C6F808784E68DEF80040F60331
:1007A00024EA030400D51C43124E2C60361D4D680C
:1007B0003468AD0324EA030400D51C430D4F3460B4
:1007C00008374D683C68ED0224EA030400D51C4359
:1007D000084D3C600C354E682C68B60224EA0304D0
:1007E00000D51C432C60521C102AFFF43DAFBDE81D
:1007F000F88F0000003C01404438024000300140C6
:10080000000002400004024000080240000C0240C8
:10081000001002400014024000180240001C024078
:1008200000200240002402400AB18161704709049F
:10083000FBE70000014880687047000008000020C6
:1008400002488168027811448160704708000020E6
:10085000032010B500F06EF8002000F005F800F05D
:1008600023F8002010BD000070B50D4D04464FF474
:100870007A700C4A29781268B0FBF1F0B2FBF0F004
:1008800000F037FD48B9102C07D200222146501E37
:1008900000F030F800206C6070BD012070BD0000D9
:1008A00008000020140000200A4808B5016841F043
:1008B00080510160006800F0805000900548001DE4
:1008C000016841F480410160006800F480400090BC
:1008D00008BD000040380240002809DB410900F053
:1008E0001F028900012001F1E0219040C1F80001C0
:1008F000704700000E4BF0B41B680D46C3F3022393
:10090000C3F10706042E00D90426191D072901D2B8
:10091000002300E0DB1E012404FA06F19C40491E7E
:100920002940641E994014402143F0BC00F0C9BE28
:100930000CED00E0064900F0070210B54FF6FF0489
:100940000868044B204040EA02201843086010BDAC
:100950000CED00E00000FA052DE9F04705000F4618
:1009600063D0444E306800F00F00B84209D23068BE
:1009700020F00F0038433060306800F00F00B842BC
:1009800053D128683C4C810712D5400703D5206815
:1009900040F4E05020602878000703D5206840F438
:1009A00060402060A968206820F0F00008432060C3
:1009B0002878C0072AD0304968680839012810D043
:1009C0000968022810D0890700292EDA216821F051
:1009D000030101432160FFF72DFF804641F2883972
:1009E0000DE009688903EFE78901EDE7FFF722FFD2
:1009F000A0EB0801494502D90320BDE8F0876868EB
:100A0000216801F00C01B1EB800FEFD1306800F0EC
:100A10000F00B8420BD9306820F00F003843306027
:100A2000306800F00F00B84201D00120E5E72878D7
:100A3000400705D5E968206820F4E05008432060AD
:100A40002878000706D52869216821F4604141EA29
:100A5000C000206000F016F82168084AC1F30311B5
:100A6000515CC840064908600020FFF7FDFE0020E9
:100A7000C3E70000003C024008380240A01700080D
:100A800014000020154910B51548096811F00C0232
:100A900013D01449042A0FD0082A0ED10F4C241F5A
:100AA0002268236802F03F025B0207D52068C0F38A
:100AB0008810A0FB010106E0084610BD2168C1F3C3
:100AC0008811A1FB00010023FFF79AFB2168C1F305
:100AD0000141491C4900B0FBF1F010BD083802404B
:100AE0000024F40040787D01F0B50D461F49204CEC
:100AF000002887B016464FF000004FF002020F6842
:100B00004FF0030319D047F004070F60096801F0A4
:100B10000401059111020091CDE90120CDE90330D6
:100B200014486946FFF794FD206845EAC60120F0A5
:100B300078400843206007B0F0BD47F001070F6020
:100B4000096801F0010105914FF480710091CDE930
:100B50000120CDE9033008486946FFF779FD206898
:100B6000354320F0EC602843E4E7000030380240D1
:100B70000838024000080240000002402DE9F84F0A
:100B800005004FF000076ED02878DFF81C93A9F11C
:100B9000040AC007AAF104044CD0D9F80010484652
:100BA000C1F38101012908D00068C0F38100022847
:100BB0000AD1DAF80000400206D52068800339D552
:100BC00068680028DFD035E06868B0F5803F0BD05A
:100BD00010B1B0F5A02F11D0206820F48030206033
:100BE000206820F4802002E0206840F480302060FB
:100BF000686890B1FFF71EFE06460AE0206840F4E0
:100C000080202060F0E700BFFFF714FE801B6428FF
:100C100072D820688003F7D50CE0FFF70BFE06467C
:100C200005E000BFFFF706FE801B6428F0D82068AF
:100C30008003F7D42878800742D5D9F800104846B9
:100C400011F00C0F08D00068C0F3810002280BD10E
:100C5000DAF80000400207D42068800718D5E86859
:100C6000012800D114E01CE1E8680028206817D0B2
:100C700040F001002060FFF7DDFD064605E000BF03
:100C8000FFF7D8FD801B0228C2D820688007F7D55F
:100C90002869216821F0F80141EAC00020600FE0D6
:100CA00020F001002060FFF7C5FD064605E000BF0B
:100CB000FFF7C0FD801B02281ED820688007F7D4EC
:100CC0002878000729D5784869696C300029804662
:100CD000016812D041F001010160FFF7ABFD06464B
:100CE00005E000BFFFF7A6FD801B022804D8D8F856
:100CF00000008007F6D510E089E021F001010160D5
:100D0000FFF798FD064604E0FFF794FD801B0228DC
:100D10007DD8D8F800008007F6D4287840076BD536
:100D2000DFF8848108F13808D8F80000C0000BD43F
:100D3000D8F8001041F08051C8F80010D8F8000031
:100D4000012700F08050009058480168C90512D46E
:100D50000168834641F480710160FFF76BFD064630
:100D600005E000BFFFF766FD801B64284FD8DBF865
:100D70000000C005F6D54C4EA868683601280AD098
:100D800008B1052811D0306820F0010030603068CB
:100D900020F0040002E0306840F001003060A868F4
:100DA000A0B1FFF747FD83460CE0306840F0040037
:100DB0003060F0E7FFF73EFDA0EB0B0141F2883019
:100DC000814266D830688007F4D50EE0FFF732FD27
:100DD000834607E0FFF72EFDA0EB0B0141F28830C0
:100DE000814256D830688007F4D42FB1D8F800106B
:100DF00021F08051C8F80010A869C8B3D9F80010D4
:100E0000C1F3810102294CD00228206800E040E0B3
:100E100020F08070206003D0FFF70CFD05463BE01A
:100E2000FFF708FD064604E0FFF704FD801B0228DB
:100E30002FD820688001F7D4D5E90962D5E90701E8
:100E40001B4B570895F82C20084303EB074343EA54
:100E50008611084340EA026040F00050CAF80000E2
:100E6000206840F080702060FFF7E4FC054606E053
:100E700015E000BFFFF7DEFC401B022809D8206800
:100E80008001F7D50BE000BFFFF7D4FC401B022820
:100E900002D90320BDE8F88F20688001F4D4002037
:100EA000F8E70120F6E70000083802400070004033
:100EB0000000FFFF7047000038B5016804464A682B
:100EC0008868C043430606D5C30704D1D3435B06F5
:100ED00001D4E16C05E0830708D4D3431B0605D495
:100EE000216D01B02046BDE830400847830603D598
:100EF000430601D5C30552D4D3439B064FD44306C2
:100F00000AD494F85D30032B4AD0236E43F00403D7
:100F10002366CB688B680093830609D4236E43F065
:100F2000010323668B6800930B6823F040030B607A
:100F3000C00506D4206E40F0080020662068806856
:100F40000090206E00282AD0206893074FF00101FE
:100F5000436823F0E003436084F85D1001D4D007B8
:100F600022D02068124D416821F003014160A06D3C
:100F700040B10565A06DFFF705FA18B1206E40F08D
:100F800040002066606D002809D00565606DFFF7A0
:100F9000F9F9002803D0206E40F04000206638BDEB
:100FA000C8688868009038BD2046FFF783FF38BDC9
:100FB0004D1400082DE9F047040005D094F85D00B9
:100FC0000025A56218B107E00120BDE8F0872046A2
:100FD00084F85C5000F050F8022284F85D204FF451
:100FE000E0632068016821F040010160E0689842F8
:100FF00001D9002101E04FF48051B0F5706F02D0AB
:10100000984200D0A5624FF00109266B2EB9984294
:1010100001D9226301E0C4F83090D4E90468D4E92E
:101020000102278B46EA0806A36A104307F40078FA
:1010300030432668D4E907C240EA080040EA0C00C1
:10104000CC460427104318433060D4F81880666BF0
:10105000606AE26807EA1847236830433A4310435E
:10106000084358602068C16921F40061C1612566A8
:1010700084F85DC00020A8E72DE9F04F87B08046D6
:1010800014216846FFF7F4F83549D8F80000884283
:1010900063D13448016841F480110160006800F4B4
:1010A000801005902F481438016841F0200101603C
:1010B00000680025022100F0200005904FF46070C8
:1010C00005238DE8230003222748CDE90323694641
:1010D000FFF7BEFADFF894904FF08066244B4FF490
:1010E000807A48463714C9F800304FF4803BC0E995
:1010F0000165C0E903571830C9F8145080E8200C86
:101100004846C9F82450FFF71FFA08B1FFF739F92C
:10111000184C4023C8F8589004F10800C9F83880EA
:10112000134A80E8A80010306561183280E8200C6E
:1011300065622046C4E90026FFF706FA08B1FFF70A
:1011400020F90022C8F8544055201146C4F83880D0
:10115000FFF7D0FB5520FFF7BFFB07B0BDE8F08FCE
:101160000050014044380240001402407C0000203E
:1011700058640240DC0000202DE9F84F044690F846
:101180005C0000271D460128164689460DD04FF009
:10119000010B84F85CB0FFF74DFB804694F85D00CE
:1011A000BA46012804D002279DE00220BDE8F88F4E
:1011B000B9F1000F74D0002E72D0A2680321C4F8D8
:1011C0003890A68784F85D10C4F860A0E687C4F85C
:1011D00040A0A4F844A0A4F846A0B2F5004FC4F87B
:1011E00050A0C4F84CA004D12068016841F48041AB
:1011F000016020680168490603D4016841F040019C
:101200000160E068B0F5E06F606823D908B1012E95
:101210001CD1A06B21680088C86006E02068816846
:10122000890709D5A16B0988C160A06B801CA063E8
:10123000E08F401EE08709E0FFF7FCFAA0EB080012
:10124000A84202D3681C01D044E055B3E08F0028C7
:10125000E4D134E008B1012E2ED1E08F012804D969
:10126000A06B21680088C86014E0A16B2068097831
:101270000173A06B401CA063E08F401EE0871BE061
:101280002068816889070DD5E18F0129A16BEED90E
:101290000988C160A06B801CA063E08F801EEDE711
:1012A00020E017E0FFF7C6FAA0EB0800A84202D33F
:1012B000681C01D00EE06DB1E08F0028E0D14246FD
:1012C0002946204600F0CBF808B120202066A0680F
:1012D00010B105E0032706E02068C168806800902F
:1012E000206E00B1012784F85DB0384684F85CA018
:1012F0005CE7401EB0F1807F10B501D3012010BD26
:101300004FF0E02460610F21601700F0DAF900204F
:10131000A0610721216110BDFEE700002DE9F04129
:1013200086B014216846FEF7A3FF2B48016841F4FC
:1013300080710160016801F480710591016841F0DC
:1013400001010160016801F001010591016841F0AE
:1013500080010160016801F080010591016841F0A0
:1013600020010160006800221C4F022100F02000D3
:1013700005903846FFF758FADFF8648000224021D4
:101380004046FFF751FA00246946022600960125DF
:101390003846CDE901540394FFF75AF9E80269464B
:1013A000CDE9000438460294FFF752F92802009074
:1013B000CDE901640B48694603940494FFF748F9AA
:1013C00040200090CDE90154694640460394FFF760
:1013D0003FF906B0BDE8F0813038024000200240FD
:1013E000001402400000024070B511484FF4E06460
:1013F0000E4E002100F1140C3023C0E902147215C6
:1014000001618CE80E000724016241624FF482758D
:10141000C0E90A1401634163C0E90065FFF7CAFD32
:101420000448416941F00201416170BD0050014032
:101430001800002000200240FEE7704770470000BF
:101440000148FFF739BD00001800002010B5806B7F
:101450000021A0F84610C187FFF72CFD10BDF8B59C
:1014600015460E4604460B464FF4C051009200222A
:1014700000F019F888B900223346802120460095F3
:1014800000F05CF848B9002233464FF4C0612046B2
:10149000009500F008F8002804D0206E40F02000ED
:1014A00020660320F8BD2DE9F0474FF4C0681D46C3
:1014B00017460E46DDF8209004460CE0464501D163
:1014C00007B9007B681C06D0FFF7B4F9A0EB090050
:1014D000A84208D23DB1206881683140B942EDD1BF
:1014E0000020BDE8F0872068416821F0E0014160FC
:1014F0006068B0F5827F0BD1A068B0F5004F02D0D4
:10150000B0F5806F04D12068016821F040010160CE
:10151000A06AB0F5005F09D12068016821F400518C
:1015200001602068016841F400510160012184F8E4
:101530005D10002084F85C000320D2E72DE9F04123
:101540001D4617460E460446DDF8188008E0681C64
:1015500006D0FFF76FF9A0EB0800A8420BD255B1F7
:101560002068806836EA000030D00020B842EED112
:101570000020BDE8F0812068416821F0E001416071
:101580006068B0F5827F0BD1A068B0F5004F02D043
:10159000B0F5806F04D12068016821F0400101603E
:1015A000A06AB0F5005F09D12068016821F40051FC
:1015B00001602068016841F400510160012184F854
:1015C0005D10002084F85C000320D2E70120CDE705
:1015D0007047FFF735B9000030B593B03021684649
:1015E000FEF746FE14210CA8FEF742FE1D480168D6
:1015F00041F080510160006800F0805011901A485D
:10160000016821F4404141F4004101600068002577
:101610000DF1200C0224009400F4404011900A22A5
:10162000D223CDE9064510218CE81C0001200B9443
:10163000CDE903016846FFF7A1FAE2024FF4A05199
:101640000F20CDE90F120CAA052182E831000CA869
:10165000FFF782F9002211461046FFF745FA13B052
:1016600030BD00004038024000700040104A30B5E4
:101670001048146800210F4B44F4700414600833C0
:1016800005680D4A0D4C45F00105056019600368B9
:10169000051D1340074A03600C322C600568E30502
:1016A000034C25F480250560803C1160236030BD2B
:1016B00088ED00E000380240FFFFF6FE1030002405
:1016C000FEE7090700284FEA116104DB00F1E02082
:1016D00080F80014704700F00F0000F1E02080F85F
:1016E000141D704702E008C8121F08C1002AFAD171
:1016F00070477047002001E001C1121F002AFBD192
:101700007047000020480B2208B50021027041708C
:101710008170C1700171FFF79BF8FFF75DFFFFF764
:10172000FDFD1A48016841F4800101600068002253
:10173000114600F4800000903B20FFF7DBF83B20CF
:10174000FFF7CAF800223C201146FFF7D3F83C20EF
:10175000FFF7C2F8FFF748FE0D4C4FF47A7641F2DE
:101760008835606920F00200606107490522094858
:101770002B46FFF701FD606940F0020060613046D2
:10178000FEF754FFEDE70000000000203038024073
:101790000020024018000020000610160006101657
:1017A0000000000000000000010203040607080911
:1017B000D01700080000002018000000E416000800
:1017C000E81700081800002028050000F41600089B
:1017D00000000000000000000100000010000000F8
:0817E000000000000024F400E9
:04000005080001C925
:00000001FF
