:020000040800F2
:1000000010BB0020A10200081F2800086D26000870
:100010001D28000827040008F5440008000000001F
:10002000000000000000000000000000DD010008EA
:10003000F10400080000000039020008992B0008B4
:10004000BB020008BB020008BB020008BB0200089C
:10005000BB020008BB020008BB020008BB0200088C
:10006000BB020008BB020008BB020008BB0200087C
:10007000BB020008BB020008BB020008BB0200086C
:10008000BB020008BB020008BB020008BB0200085C
:10009000BB020008BB020008BB020008BB0200084C
:1000A000BB020008BB020008BB020008BB0200083C
:1000B000A92C0008BB020008BB020008BB02000814
:1000C000BB020008BB020008BB020008BB0200081C
:1000D000BB020008BB020008BB020008BB0200080C
:1000E000BB020008BB020008BB020008BB020008FC
:1000F000BB020008BB020008BB020008BB020008EC
:10010000BB020008BB020008BB020008BB020008DB
:10011000BB020008BB020008BB020008BB020008CB
:10012000BB020008BB020008BB020008BB020008BB
:10013000BB020008BB020008BB020008BB020008AB
:10014000BB020008BB020008BB020008212800080F
:10015000BB020008BB020008BB020008BB0200088B
:10016000BB020008BB020008BB020008BB0200087B
:10017000BB020008BB020008BB0200080000000030
:10018000BB020008BB020008BB020008BB0200085B
:10019000BB020008BB020008BB020008BB0200084B
:1001A000BB020008BB020008BB020008BB0200083B
:1001B000BB020008BB020008BB020008BB0200082B
:1001C000BB020008BB020008DFF80CD000F0EEF81C
:1001D000004800478945000810BB00202D4B1968D6
:1001E0000868B0E8F04F80F30988BFF36F8F4FF0D5
:1001F000000080F311887047000000000848006884
:10020000006880F308884FF0000080F3148862B61D
:1002100061B6BFF34F8FBFF36F8F00DF00BF00BF2A
:1002200008ED00E0DFF80C00016841F470010160A6
:10023000704700BF88ED00E0EFF30980BFF36F8FD8
:10024000144B1A681EF0100F08BF20ED108A20E929
:10025000F04F106009B44FF0500072B680F311886F
:10026000BFF34F8FBFF36F8F62B604F043FF4FF0C1
:10027000000080F3118809BC19680868B0E8F04FE5
:100280001EF0100F08BFB0EC108A80F30988BFF38E
:100290006F8F7047A8000020EFF3058070470000C3
:1002A0000648804706480047FEE7FEE7FEE7FEE710
:1002B000FEE7FEE7FEE7FEE7FEE7FEE78D2C00081F
:1002C000C90100082DE9F05F0546002092469B46D3
:1002D00088460646814640241BE02846414647465C
:1002E000224600F053F853465A46C01A914110D3A3
:1002F00011461846224600F03AF82D1A67EB01081D
:100300004F4622460120002100F031F817EB00098A
:100310004E41201EA4F10104DFDC484631462A4646
:100320004346BDE8F09F40EA01039B0703D009E084
:1003300008C9121F08C0042AFAD203E011F8013BD1
:1003400000F8013B521EF9D27047D2B201E000F82A
:10035000012B491EFBD270470022F6E710B5134669
:100360000A4604461946FFF7F0FF204610BD202A32
:1003700004DB203A00FA02F1002070479140C2F1FC
:10038000200320FA03F3194390407047202A04DB2E
:10039000203A21FA02F00021704721FA02F3D040FE
:1003A000C2F120029140084319467047064C074DA0
:1003B00006E0E06840F0010394E807009847103435
:1003C000AC42F6D3FFF704FF005F0008205F00088F
:1003D00070B58C1810F8015B15F0070301D110F807
:1003E000013B2A1106D110F8012B03E010F8016B34
:1003F00001F8016B5B1EF9D12B0705D40023521EB7
:100400000DD401F8013BFAE710F8013BCB1A921C1E
:1004100003E013F8015B01F8015B521EF9D5A1421C
:10042000D8D3002070BDFEE7002070470020704741
:1004300005490022054810B502F0A8FD044903480B
:1004400002F09EFD002010BDE01500200C050020EC
:10045000E00D002070B5044600780E4D0D2810D137
:1004600000226869114605F0C1F9012809D104216B
:1004700009A000F027F80028F9D16869002105F0EB
:10048000BBF828692146BDE8704000231A4605F0F4
:100490004DB80000000000200D0A3E0070B50D466A
:1004A00004460146054802F06BFD044802F04DFD8C
:1004B00029682046FFF7CEFF002070BD0C05002004
:1004C00000207047094A10B5D2F8BC22D2F8142295
:1004D0000AB1012010BD0A460146044802F056FD4B
:1004E000BDE81040014802F0B2BD00000C0500203C
:1004F0007047704770B5044600F006F90546601C69
:1005000002D004480078044400F0FEF8401BA042EA
:10051000FAD370BD980000202DE9F84F00224FF06B
:1005200001094FF0030A4FF00F0E00BF0B6809FAE4
:1005300002F42340A34270D14D68012D05D0022D55
:1005400003D0112D01D0122D11D185685700CE682E
:100550000AFA07FC25EA0C05BE402E438660456872
:100560000E79A543C6F3001696402E434660C56833
:1005700056008F680AFA06F4A543B7402F43C760B8
:100580004D68022D01D0122D12D1D5080F694FEA06
:10059000427C00EB8505AB462D6A4FEADC6C0EFA17
:1005A0000CF807FA0CF725EA08052F43CBF8207062
:1005B0000D79076805F00305A743B5403D43056085
:1005C0004C68E40074D53D4C256845F480452560B1
:1005D000246822F00307960704F480440094384C02
:1005E000360F2744D7F80848DFF8D8C00EFA06F5CA
:1005F000604524EA050401D100252EE0324DA842D1
:1006000001D1012529E0314DA84201D1022524E084
:100610002F4DA84202D103251FE049E02D4DA842ED
:1006200001D1042519E02C4DA84201D1052514E083
:100630002A4DA84201D106250FE0294DA84201D13B
:1006400007250AE0274DA84201D1082505E0264DDF
:10065000A84201D1092500E00A25B540234E2543D3
:10066000C7F808584D683468ED0324EA030400D540
:100670001C431E4D34602D1D4E682C68B60324EAC1
:10068000030400D51C43194E2C6008364D683468AD
:10069000ED0224EA030400D51C43144D34600C35EC
:1006A0004E682C68B60224EA030400D51C432C6073
:1006B000521C102AFFF43AAFBDE8F88F44380240CC
:1006C00000300140000002400004024000080240E7
:1006D000000C0240001002400014024000180240CA
:1006E000001C02400020024000240240003C014067
:1006F00042690A4200D00904816170470AB18161F0
:1007000070470904FBE7000001488068704700005B
:100710009800002002488168027811448160704787
:1007200098000020032010B500F08CF8002000F0A5
:1007300005F800F03DF8002010BD000010B50022C3
:1007400001461C2088B000F05DF81C2000F04CF839
:100750001448016841F001010160006805A900F03A
:1007600001000690684601F0C9F801F0EDF80E4965
:100770004000002240F2E733B0FBF1F10B484FF0AC
:1007800080440460C0E90332491EC0E9011201F04F
:100790006EFE10B1012008B010BD044801F084FEC7
:1007A000F9E700004038024040420F00E01D002001
:1007B0000C4882B0016841F080510160006800F08F
:1007C000805000900748001D016841F4804101609D
:1007D000006800220F2100F480400090901E02B0BB
:1007E00000F010B840380240002809DB410900F051
:1007F0001F028900012001F1E0219040C1F80001B1
:10080000704700000E4BF0B41B680D46C3F3022383
:10081000C3F10706042E00D90426191D072901D2A9
:10082000002300E0DB1E012404FA06F19C40491E6F
:100830002940641E994014402143F0BC03F05BBE84
:100840000CED00E0064900F0070210B54FF6FF047A
:100850000868044B204040EA02201843086010BD9D
:100860000CED00E00000FA0501680123C0F8FC333C
:10087000002280F8F4238869044A40F0006088610F
:10088000486D1043486500207047000003000010C9
:1008900070B5164D0446A1B1012911D12068D0F8D8
:1008A000001E41F00101C0F8001ED4F8000402F05F
:1008B00019FF206A002803D0286840F0060028604D
:1008C00070BD206A28B102F07FF9286820F0060088
:1008D00028602068D0F8001E21F00101C0F8001E39
:1008E000D4F80004BDE8704002F09ABE10ED00E0BC
:1008F0000068416200207047F0B503685D6A39B155
:100900009F6A4C1E00204FF4827605EB17450BE0E2
:1009100045EA0240986210E0471C06EB800053F85D
:1009200000C0F8B205EB1C45A042F5D34FF480702F
:1009300000EB810045EA02421A500020F0BDD0F8D9
:10094000000402F0D7BDC1EBC10200EB8202D0F877
:100950000004926C02F042BDC1EBC10200EB8202C6
:10096000D0F80004D2F8082202F08DBDD0F80004BF
:1009700002F0C2BD01F00F020B0670B5C2EBC2015E
:1009800004464FF001004FF0000504EB810103D550
:1009900081F83D003C3103E081F8FD5101F5FE7125
:1009A0000A7094F8BC23012A08D084F8BC0320689C
:1009B00003F036F9002084F8BC5370BD022070BDEE
:1009C00070B54268044601F00F00904201D9012041
:1009D00070BD01F00F024FF000050B06C2EBC20123
:1009E0004FF0010204EB810103D581F83D203C3139
:1009F00003E081F8FD5101F5FE718D70087094F8E7
:100A0000BC03012808D084F8BC23206803F004FB51
:100A1000002084F8BC5370BD022070BD01F00F01AE
:100A2000C1EBC10100EB8100D0F8140270472DE941
:100A3000F04101F00F0604460D064FF00100C6EB31
:100A4000C6014FF0000504EB810103D581F83D009C
:100A50003C3103E081F8FD5101F5FE714F788A6069
:100A6000CB700E7007B1CE80022B00D10D7194F8BF
:100A7000BC23012A09D084F8BC03206803F030F8B5
:100A8000284684F8BC53BDE8F0810220FBE770B52E
:100A900001F00F050C460026C5EBC50100EB8101F6
:100AA000C1F80822C1E9843681F8FD6181F8FC5162
:100AB00001F5FE710369012B00D10A612207027C56
:100AC000006803D003F000FB002070BD03F0EAF9DA
:100AD000FAE770B50D464168044605F00F008842FC
:100AE00001D9012070BD29064FF000064FF0010228
:100AF00007D5C0EBC00104EB810181F83D203C31FA
:100B000007E0C5EBC50104EB810181F8FD6101F54A
:100B1000FE718A70087094F8BC03012807D084F82D
:100B2000BC23206803F0A4FA280702D007E00220C3
:100B300070BD217C04F57172206803F041FA002039
:100B400084F8BC6370BD2DE9F04101F00F050C463F
:100B50000026C5EBC501012700EB81018A64C1E9CC
:100B6000143681F83D7001F83C5F0369012B00D118
:100B70000A612207027C006804D003F0A5FA002075
:100B8000BDE8F08103F08EF9F9E700002DE9FC5F84
:100B900005680446284603F0C0FB00287ED1206883
:100BA00003F0E7FB002879D0206803F0E2FB800720
:100BB00004D52068416901F002014161206803F019
:100BC000D8FBC10604F57170009034D520688169A6
:100BD00021F0100181612F6A07F00F01C7F3434034
:100BE000C1EBC101022804EB810606F5FE7602D0B6
:100BF000062811D01AE047F6F070074216D0C7F366
:100C00000A12F1681746284603F0B7FBF168B0698D
:100C10003944F160384408E000990822284603F07E
:100C2000ACFBB069C7F30A110844B0612068816960
:100C300041F010018161206803F09BFB00034FF03D
:100C400001094FF0080B5BD52068002603F070FB0C
:100C5000DFF8A8A3074651E0F8074DD02068F1B2AD
:100C600003F07FFB8046C00707D005EB4611C1F8B3
:100C7000089B3146204601F0D9FD5FEA087022D575
:100C800005EB4611C1F808BB2068016C00EB46106B
:100C900001915145D0F8081B07D900E0ABE10904E8
:100CA00003D54FF40041C0F8081B204600F09EFA1F
:100CB0000198504507D92069012804D120680121F5
:100CC000009A03F07DF95FEAC86004D505EB461190
:100CD0001020C1F8080B5FEA886004D505EB4610C8
:100CE0002021C0F8081B5FEA884005D505EB4611B6
:100CF0004FF40050C1F8080B7F08761C002FABD1D1
:100D0000206803F036FB40034FF0000A5CD52068F2
:100D100003F007FB0026074654E0F80750D0206890
:100D2000F1B203F00CFB8046C00723D0D5F834287D
:100D300006F00F0C05EB461309FA0CF08243C5F8D8
:100D40003428C3F80899206901280FD1C6EBC600E2
:100D500004EB8000D0E911121144816436B9206D92
:100D600020B920680121009A03F02AF92046F1B247
:100D7000FFF7E9FD5FEA087003D505EB4611C1F8FE
:100D800008B95FEAC86004D505EB46111020C1F828
:100D900008095FEA486004D505EB46114020C1F818
:100DA00008095FEA887004D505EB46110220C1F8F6
:100DB00008095FEA086003D53146204601F09CFD32
:100DC0007F08761C002FA8D1206803F0D2FA0028F3
:100DD00011DAD5F8040820F00100C5F8040894F8E9
:100DE000F403012839D0204600F0E4F92068416975
:100DF00001F000414161206803F0BBFA00050BD50A
:100E0000D5F80808C00702D0204600F00BFA206889
:100E1000416901F400614161206803F0AAFA000110
:100E20000AD52068416901F00061416194F8F4033A
:100E3000D0B1204600F0F6F9206803F09AFAC00419
:100E400076D5D5F8040820F00100C5F8040820681C
:100E5000102103F043FA002135E00021204684F8F8
:100E6000F4A3FFF715FDC1E784F8F4932068406D03
:100E70000121C0F38300C4F8F8032046FFF708FD02
:100E8000DAE700BF05EB41104FF67F32C0F80829C2
:100E9000D0F8003923F40013C0F80039D0F8003935
:100EA00043F00063C0F80039C0F8082BD0F8002BDD
:100EB00022F40012C0F8002BD0F8002B42F00062A0
:100EC000C0F8002B491C60688842DBD8D5F81C08A4
:100ED00040F00110C5F81C08206B60B1D5F88408FB
:100EE00040F00B00C5F88408D5F8440840F00B002A
:100EF000C5F844080CE0D5F8140842F22B01084369
:100F0000C5F81408D5F8100840F00B00C5F8100813
:100F1000D5F8000820F4FE60C5F80008217C2068A0
:100F2000009A03F04DF82068416901F48051416155
:100F3000206803F01EFA800417D5206802F010FE26
:100F4000206803F0DDF9E06000F0F8FC0146207B4A
:100F50002368C2B2184603F047FA204600F014F99D
:100F60002068416901F400514161206803F001FAF1
:100F7000000707D5204600F021F92068416901F0FB
:100F800008014161206803F0F4F9C00208D500218E
:100F9000204600F035F82068416901F48011416174
:100FA000206803F0E6F9800208D50021204600F011
:100FB0002BF82068416901F400114161206803F0B9
:100FC000D8F9400007D52046FFF7B9FC20684169F1
:100FD00001F080414161206803F0CBF940070AD558
:100FE00020684568680702D52046FFF7BFFC2168E6
:100FF000486828434860BDE8FC9F00000A30544F11
:10100000D0F8000402F0CABAD0F8000402F0C8BA5E
:101010002DE9F04104008AB005D094F8BD03002505
:10102000266820B108E001200AB0BDE8F081204622
:1010300084F8BC5300F066F8032084F8BD03F06B1D
:10104000C00500D42561206802F026FF04F11001DC
:10105000684628228846FFF766F994E80F0002F0F8
:101060008DFD0227D8BB2068002103F094F90020F1
:10107000012610E0C0EBC001421C04EB810181F8A5
:101080003D6081F83F504D648D640D6581F83C00F2
:10109000A1F84200D0B261688142EBD8002011E093
:1010A000C0EBC001421C04EB810181F8FD5181F8C5
:1010B000FF51C1F80452C1F80852C1F8105281F82A
:1010C000FC01D0B261688142EAD8282241466846D4
:1010D000FFF729F994E80F0002F020FE10B184F820
:1010E000BD73A0E7606A84F8385084F8BD630128B6
:1010F00002D12046FFF7B8FB206802F003FE002073
:1011000092E7000010B586B0044614216846FFF748
:1011100023F92068B0F1A04F30D11948016841F09F
:101120000101016000680221002200F00100059029
:1011300003230A244FF4C0508DE81F00114869466C
:10114000FFF7EAF90E48001D016841F080010160D7
:10115000006800F08000059009481430016841F4EF
:101160008041016000680022052100F48040059064
:101170004320FFF747FB4320FFF736FB06B010BDC7
:10118000303802400000024070B50446C0680125B6
:1011900070B1022801D0FFF7ACF9D4F80004294659
:1011A00002F054FAD4F80004BDE8704002F00FBA1F
:1011B0000025F2E7D0F8000402F032BAD0F80004BB
:1011C00002F038BA10B5044690F8BC0301280BD0E1
:1011D000012084F8381084F8BC03206803F0F2F88A
:1011E000002084F8BC0310BD022010BDD0F80024FC
:1011F00000F57171104602F035BA10B5044690F84A
:10120000BC0301280CD0012084F8BC03206802F044
:101210006DFD206803F04CF8002084F8BC0310BD7D
:10122000022010BD10B50446D0F8000402F05AFAAE
:101230002068D0F8001E41F00101C0F8001E206AAD
:10124000002804D00248016841F00601016010BD89
:1012500010ED00E01848F8B5016841F080510160D8
:101260000068164C00F080500090206840F48030F8
:101270002060FFF749FA4FF47A76054605E000BF93
:10128000FFF742FA401BB0420FD86068C003F7D5A1
:10129000206840F400302060FFF736FA054606E08B
:1012A000FFF732FA401BB04201D90320F8BD606855
:1012B0008003F5D50020F8BD4038024000700040A2
:1012C0000248016841F4807101607047007000407D
:1012D0002DE9F84F04460078DFF824944FF000061B
:1012E0003746C0070ED0D9F8001021F40001C9F824
:1012F0000010D9F80010626B1143C9F80010606B40
:1013000000B90126FE4D2068843500030ED5E16B3F
:10131000286820F4401008432860E06BB0F5801F77
:1013200001D010B102E0012600E0012720684FF44F
:10133000800BC0020CD5216C286820F440000843C3
:101340002860206C584501D1012601E000B9012731
:101350002068C10100D50126800666D5E8483830EE
:10136000016841F0805101600068DFF898A300F047
:1013700080500090DAF8001041F48071CAF8001033
:10138000FFF7C2F9804605E0FFF7BEF9A0EB0800C1
:1013900064287DD8DAF80000C005F5D5DFF8608351
:1013A00008F16808D8F8000010F440702AD0218EA7
:1013B00001F44071814225D0D8F80010D8F80020FF
:1013C00021F4407142F48032C8F80020D8F800209F
:1013D00022F48032C8F80020C8F80010D8F80000C5
:1013E000C0070FD0FFF790F9824607E0FFF78CF9AE
:1013F000A0EB0A0141F288308142CAD8D8F8000037
:101400008007F3D5206BC0F3012103297ED0D9F8E2
:10141000001021F4F811C9F80010228ED8F800103D
:10142000C2F30B021143C8F800102078C00607D59C
:10143000286820F0807028602868A16B0843286025
:101440002188AF488830490405D5626E016821F4CF
:101450004031114301602188090405D5A26E01685D
:1014600021F44021114301602168C90305D5E26ED2
:10147000016821F44011114301602168890305D5F9
:10148000226F016821F4400111430160217800E0DE
:1014900018E1490605D5626C016821F0030111438A
:1014A00001602178090605D5A26C016821F00C01C4
:1014B000114301602188C90505D5E26C016821F05E
:1014C0003001114301602188890505D5226D01682D
:1014D00021F0C001114301602188490505D5626DE5
:1014E000016821F44071114301602188090505D587
:1014F000A26D016821F44061114301602188C90493
:1015000007D5E26D016821F4405100E041E011434C
:1015100001602188890405D5226E016821F44041CB
:10152000114301602168490205D5A26F016821F0CD
:1015300080611143016021684FF0006A890209D57A
:10154000E26F016821F0006111430160E16F5145D4
:1015500000D1012721680A0700D50127490305D5D5
:10156000626F016821F04071114301602168090236
:1015700006D5D4F88020016821F080511143016024
:10158000DFF88491012E0ED02068B0F1007F0AD0E0
:101590008FE05E4AD9F80030104023F4F81202437D
:1015A000C9F8002039E7D9F800004E4620F08060E5
:1015B000C9F80000FFF7A8F8804605E0FFF7A4F897
:1015C000A0EB080064287DD830680001F6D42178AB
:1015D0004B487C30C90712D0616B81B9237A6268AD
:1015E0000168D0F800C09201C1F3014142EA014212
:1015F000CCF3036142EA016141EA037101602168B1
:101600000A0303D5E26BB2F5801F04D0C9021AD5D4
:10161000216C594517D16368016894F80CC00268C1
:101620009B01C1F3014143EA0141C2F3027241EA65
:101630000C6141EA027101602968626A21F01F01B0
:10164000521E114329602168C90110D5238A62689E
:101650000168D0F800C09201C1F3036142EA03427D
:1016600042EA0162CCF3027142EA01710160216831
:1016700089010CD56168228A237B94F808C089010E
:1016800041EA024141EA036141EA0C7101603168BB
:10169000B04641F080613160FFF736F8064604E05D
:1016A000FFF732F8801B64280CD8D8F8000000013E
:1016B000F6D56FB3D9F800004E4620F08050C9F837
:1016C000000000E079E0FFF71FF8074605E000BFE3
:1016D000FFF71AF8C01B64286FD83068C043800039
:1016E000F6D50748216880300A0301D5E26B1AB1AC
:1016F000C90225D5216C19BB63690168277E08E002
:10170000083802400070004000380240FFFCFF0F24
:101710005AE00268C1F301419B0143EA0143C2F36D
:10172000027143EA076242EA0171016029686FF0C1
:10173000FF03A26A21F4F85103EB0222114329604E
:101740002168890212D5E16F51450FD1238C62695E
:10175000016807689201C1F3036142EA034242EA69
:101760000162C7F3027142EA017101602178090741
:1017700016D561690268D0F800C08B01277FC2F3DB
:101780000362CCF3014143EA014141EA026141EACB
:10179000077101602868E16A20F44030084328603E
:1017A000306840F080503060FEF7AEFF044607E03E
:1017B000FEF7AAFF001B642802D90320BDE8F88FBA
:1017C0003068C0438000F3D40020F7E72DE9F047EC
:1017D00005000F4663D0444E306800F00F00B84259
:1017E00009D2306820F00F0038433060306800F0D4
:1017F0000F00B84253D128683C4C810712D54007EE
:1018000003D5206840F4E05020602878000703D515
:10181000206840F460402060A968206820F0F00053
:10182000084320602878C0072AD030496868083902
:10183000012810D00968022810D0890700292EDA63
:10184000216821F0030101432160FEF75DFF80461E
:1018500041F288390DE009688903EFE78901EDE776
:10186000FEF752FFA0EB0801494502D90320BDE86D
:10187000F0876868216801F00C01B1EB800FEFD1AF
:10188000306800F00F00B8420BD9306820F00F002C
:1018900038433060306800F00F00B84201D00120BA
:1018A000E5E72878400705D5E968206820F4E0508E
:1018B000084320602878000706D52869216821F4AC
:1018C000604141EAC000206000F04EF82168084AFB
:1018D000C1F30311515CC84006490860064800681E
:1018E000FEF72CFF0020C2E7003C0240083802400F
:1018F000DC5E0008A40000209C0000200D4A0F239D
:1019000030B503604FF4E0540B4B156805F0030548
:101910004560156805F0F0058560156805F4E0552B
:10192000C560126804EAD2020261186800F00F0074
:10193000086030BD08380240003C024001480068A1
:1019400070470000A40000200449054809680068A9
:10195000044AC1F38221515CC840704708380240F4
:10196000A4000020EC5E0008154910B51548096870
:1019700011F00C0213D01449042A0FD0082A0ED1FA
:101980000F4C241F2268236802F03F025B0207D538
:101990002068C0F38810A0FB010106E0084610BDD6
:1019A0002168C1F38811A1FB00010023FEF78AFC26
:1019B0002168C1F30141491C4900B0FBF1F010BDA1
:1019C000083802400024F40040787D01F0B50D464F
:1019D0001F49204C002887B016464FF000004FF0FA
:1019E00002020F684FF0030319D047F004070F609D
:1019F000096801F00401059111020091CDE901206F
:101A0000CDE9033014486946FEF786FD206845EAB3
:101A1000C60120F078400843206007B0F0BD47F0D1
:101A200001070F60096801F0010105914FF4807111
:101A30000091CDE90120CDE9033008486946FEF761
:101A40006BFD2068354320F0EC602843E4E700009C
:101A500030380240083802400008024000000240CE
:101A60002DE9F84F04004FF000076ED02078DFF822
:101A700068A3AAF10408C007A8F104054CD0DAF85D
:101A800000105046C1F38101012908D00068C0F35D
:101A9000810002280AD1D8F80000400206D5286843
:101AA000800339D560680028DFD035E06068B0F584
:101AB000803F0BD010B1B0F5A02F11D0286820F4D2
:101AC00080302860286820F4802002E0286840F4F4
:101AD00080302860606890B1FEF716FE06460AE086
:101AE000286840F480202860F0E700BFFEF70CFE75
:101AF000801B642872D828688003F7D50CE0FEF7B5
:101B000003FE064605E000BFFEF7FEFD801B6428CD
:101B1000F0D828688003F7D42078800742D5DAF817
:101B20000010504611F00C0F08D00068C0F381007F
:101B300002280BD1D8F80000400207D4286880079B
:101B400018D5E068012800D114E041E1E0680028E0
:101B5000286817D040F001002860FEF7D5FD064642
:101B600005E000BFFEF7D0FD801B0228C2D8286820
:101B70008007F7D52069296821F0F80141EAC00003
:101B800028600FE020F001002860FEF7BDFD06464A
:101B900005E000BFFEF7B8FD801B02281ED82868AC
:101BA0008007F7D42078000729D58B4861696C300D
:101BB00000298146016812D041F001010160FEF761
:101BC000A3FD064605E000BFFEF79EFD801B022830
:101BD00004D8D9F800008007F6D510E089E021F09C
:101BE00001010160FEF790FD064604E0FEF78CFD62
:101BF000801B02287DD8D9F800008007F6D4207811
:101C000040076BD5DFF8D09109F13809D9F8000009
:101C1000C0000BD4D9F8001041F08051C9F8001071
:101C2000D9F80000012700F0805000906B4801684F
:101C3000C90512D40168834641F480710160FEF742
:101C400063FD064605E000BFFEF75EFD801B6428CD
:101C50004FD8DBF80000C005F6D55F4EA0686836A7
:101C600001280AD008B1052811D0306820F0010001
:101C70003060306820F0040002E0306840F001007D
:101C80003060A068A0B1FEF73FFD83460CE03068ED
:101C900040F004003060F0E7FEF736FDA0EB0B01EA
:101CA00041F28830814266D830688007F4D50EE072
:101CB000FEF72AFD834607E0FEF726FDA0EB0B01A9
:101CC00041F28830814256D830688007F4D42FB171
:101CD000D9F8001021F08051C9F80010A069C8B3EC
:101CE000DAF80010C1F3810102294BD002282868DC
:101CF00000E040E020F08070286003D0FEF704FD93
:101D000004463BE0FEF700FD064604E0FEF7FCFC5F
:101D1000801B02282FD828688001F7D4D4E90962F3
:101D2000D4E907012E4B570894F82C20084303EB05
:101D3000074343EA8611084340EA026040F000503E
:101D4000C8F80000286840F080702860FEF7DCFCCE
:101D5000044606E03EE000BFFEF7D6FC001B02286A
:101D600009D828688001F7D534E000BFFEF7CCFC25
:101D7000001B022802D90320BDE8F88F28688001E3
:101D8000F4D427E00128D8F8000021D0E16900F45C
:101D900080028A421CD1216A00F03F028A4217D198
:101DA000626A47F6C0710140B1EB821F10D1A16A8F
:101DB0004FF0FF3200F4403302EB5101B3EB014F1F
:101DC00006D194F82C1000F07060B0EB016F01D0D8
:101DD0000120D1E70020CFE7083802400070004022
:101DE0000000FFFF2DE9F047040005D094F85D00E6
:101DF0000025A56218B107E00120BDE8F087204664
:101E000084F85C5000F050F8022284F85D204FF412
:101E1000E0632068016821F040010160E0689842B9
:101E200001D9002101E04FF48051B0F5706F02D06C
:101E3000984200D0A5624FF00109266B2EB9984256
:101E400001D9226301E0C4F83090D4E90468D4E9F0
:101E50000102278B46EA0806A36A104307F40078BC
:101E600030432668D4E907C240EA080040EA0C0083
:101E7000CC460427104318433060D4F81880666BB2
:101E8000606AE26807EA1847236830433A43104320
:101E9000084358602068C16921F40061C16125666A
:101EA00084F85DC00020A8E710B586B00446142170
:101EB0006846FEF751FA1249206888421ED111483F
:101EC000016841F480110160006800F48010059001
:101ED0000C481438016841F02001016000680221BB
:101EE000002200F020000590032305244FF46070C9
:101EF0008DE81F0004486946FEF70EFB06B010BDD2
:101F00000050014044380240001402402DE9F84FCF
:101F10000446406898460F46B0F5827F16464FF05B
:101F2000040A4FF0000501D1A06888B194F85C0064
:101F3000012819D0012084F85C00FEF7E5FB8146FA
:101F400094F85D004FF0000B01280FD0022595E0BA
:101F500084F85DA013463A4620461146CDF800802D
:101F600000F052F9BDE8F88F0220FBE7002F72D095
:101F7000002E70D0E26884F85DA0C4F860B04FF421
:101F8000E061C4F838B08A422764A4F83CB0C4F8D1
:101F90004CB0C4F850B0A4F84460A4F84660A4F86B
:101FA0003EB02068426802D922F4805201E042F437
:101FB00080524260A068B0F5004F04D120680268EA
:101FC00022F48042026020680268520603D402684C
:101FD00042F040020260E06888421DD93FE020687C
:101FE0008168C9070BD0007B216C0870206C401CF5
:101FF0002064B4F84600401EA4F846000CE0FEF74A
:1020000083FBA0EB0901414503D3B8F1FF3F03D0A7
:102010003BE0B8F1000F38D0B4F846000028DED11C
:1020200021E020688168C9070BD0C068216C088056
:10203000206C801C2064B4F84600401EA4F84600C2
:102040000DE0FEF761FBA0EB0901414504D3B8F1B7
:10205000FF3F04D019E010E0B8F1000F15D0B4F83C
:1020600046000028DDD14A464146204600F095FC56
:1020700008B120202066206E00B10125012084F8DF
:102080005D00284684F85CB06CE70325F6E72DE98F
:10209000F84F044690F85C0000271D4601281646BC
:1020A00089460DD04FF0010B84F85CB0FEF72CFB95
:1020B000804694F85D00BA46012804D002279DE0CE
:1020C0000220BDE8F88FB9F1000F74D0002E72D055
:1020D000A2680321C4F83890A68784F85D10C4F87C
:1020E00060A0E687C4F840A0A4F844A0A4F846A0E5
:1020F000B2F5004FC4F850A0C4F84CA004D1206839
:10210000016841F48041016020680168490603D4F8
:10211000016841F040010160E068B0F5E06F60687F
:1021200023D908B1012E1CD1A06B21680088C8609A
:1021300006E020688168890709D5A16B0988C1601C
:10214000A06B801CA063E08F401EE08709E0FEF7D3
:10215000DBFAA0EB0800A84202D3681C01D044E0DF
:1021600055B3E08F0028E4D134E008B1012E2ED120
:10217000E08F012804D9A06B21680088C86014E0B2
:10218000A16B206809780173A06B401CA063E08FED
:10219000401EE0871BE02068816889070DD5E18F2C
:1021A0000129A16BEED90988C160A06B801CA063D6
:1021B000E08F801EEDE720E017E0FEF7A5FAA0EB28
:1021C0000800A84202D3681C01D00EE06DB1E08F78
:1021D0000028E0D142462946204600F018FC08B10C
:1021E00020202066A06810B105E0032706E02068E3
:1021F000C16880680090206E00B1012784F85DB04E
:10220000384684F85CA05CE72DE9F05F8B4690F8D7
:102210005C1000271D460A9E0129924604464FF095
:1022200001090ED0012084F85C00FEF76DFA8046AB
:1022300094F85D00616801280CD0B1F5827F07D168
:1022400002E00220BDE8F09FA16809B9042801D08E
:102250000227FFE0BBF1000F24D0BAF1000F21D01C
:1022600005B394F85D00042802D0052084F85D00D1
:10227000A4F844500020A5874FF4E062C4F838B0B9
:10228000C4F840A0E16820669142E0642065A4F8AB
:102290004650E58701D8012D06D92068416821F410
:1022A000805105E00127D5E02068416841F4805164
:1022B000416020680168490603D4016841F040018B
:1022C0000160E0689042606845D908B1012D3AD1BB
:1022D000A06B21680088C860A06B801CA063E08FA1
:1022E000401EE0872FE02068816889070FD5E18FC5
:1022F00069B1B9F1010F0AD1A26B4FF00009118841
:10230000C160A06B801CA063E08F401EE087206846
:102310008168C9070FD0B4F8461061B1C0684FF0AA
:102320000109226C1080206C801C2064B4F84600E7
:10233000401EA4F84600FEF7E7F9A0EB0800B04203
:1023400001D3701C74D1E08F0028CCD1B4F84600C2
:102350000028C8D175E008B1012D6BD1E08F21684C
:102360000128A06B07D90088C860A06B801CA063FF
:10237000E08F801E06E000780873A06B401CA0630D
:10238000E08F401EE08755E02068816889071AD5F4
:10239000E18FC1B1B9F1010F15D1E18F0129A16B15
:1023A00007D90988C160A06B801CA063E08F801EE4
:1023B00006E009780173A06B401CA063E08F401E0B
:1023C000E0874FF0000920688168C90728D0B4F879
:1023D000461029B3B4F84610012914D9C068216CFD
:1023E0000880206C801C2064B4F84600801EA4F88D
:1023F0004600B4F84600012810D82068416841F42E
:10240000805141600AE0007B216C0870206C401C08
:102410002064B4F84600401EA4F846004FF00109BD
:10242000FEF772F9A0EB0800B04202D3701C01D095
:1024300018E0BEB1E08F0028A6D1B4F8460000280D
:10244000A2D142463146204600F0E1FA10B12020E8
:1024500020660127012084F85D000021384684F8B9
:102460005C10EFE60327F5E770477047704710B53B
:10247000040003D094F83D0010B107E0012010BD26
:10248000002084F83C00204600F00CF8022084F87C
:102490003D002068211D00F00DFC012084F83D0066
:1024A000002010BD704700000168094ACB6843F066
:1024B0000103CB60016888681040062806D0B0F59B
:1024C000803F03D0086840F001000860002070479A
:1024D00007000100704770B50446006800250169D7
:1024E000C943890715D4C168C943890711D4EA1EB5
:1024F000026101212177206880698007204602D08F
:10250000FFF7E8FF04E000F0A7F8204600F0A5F888
:10251000257720680169C943490717D4C168C943B1
:10252000490713D402216FF0040202612177206869
:10253000806910F4407F204602D0FFF7CBFF04E013
:1025400000F08AF8204600F088F8257720680169B5
:10255000C943090716D4C168C943090712D4042125
:102560006FF00802026121772068C0698007204669
:1025700002D0FFF7AFFF04E000F06EF8204600F055
:102580006CF8257720680169C943C90617D4C1686A
:10259000C943C90613D408216FF0100202612177E4
:1025A0002068C06910F4407F204602D0FFF792FFF8
:1025B00004E000F051F8204600F04FF8257720683D
:1025C0000169C943C90708D1C168C943C90704D112
:1025D000891E0161204600F041F820680169C94365
:1025E000090609D4C168C943090605D46FF0800102
:1025F00001612046FFF739FF20680169C943C90519
:1026000009D4C168C943090605D46FF4807101611A
:102610002046FFF729FF20680169C943490609D40C
:10262000C168C943490605D46FF0400101612046E5
:1026300000F01BF820680169C94389060BD4C16802
:10264000C943890607D46FF0200101612046BDE827
:102650007040FFF70BBF70BD704770470068B0F166
:10266000804F01D1FEF756B870477047FEE7000073
:10267000F0B500230A251C463026372711E000BF9D
:10268000B5EB107F02D906EB107C01E007EB107C64
:1026900001F813C001EB430C00015B1C8CF80140F6
:1026A000DBB29342ECD3F0BD2DE9F04186B01421AA
:1026B0006846FDF751FE2F48016841F001010160B5
:1026C000016801F001010591016841F48071016028
:1026D000016801F480710591016841F00401016015
:1026E000016801F004010591016841F08001016079
:1026F000016801F080010591016841F0200101604D
:10270000006800221C4F022100F02000059038468E
:10271000FDF7F4FFDFF86480012240214046FDF719
:10272000EDFF002469460226009601253846CDE9D2
:1027300001540394FDF7F0FEE8026946CDE9000478
:1027400038460294FDF7E8FE28020090CDE90164C6
:102750000B48694603940494FDF7DEFE4020009088
:10276000CDE90154694640460394FDF7D5FE06B015
:10277000BDE8F081303802400020024000140240E1
:1027800000000240F0B40F484FF4E0640C4E00210A
:1027900000F114072023C0E902147215016187E8D3
:1027A0000E000724016241624FF48275C0E90A14E9
:1027B00001634163C0E90065F0BCFFF713BB000093
:1027C000005001402402002010490022104810B59A
:1027D00000F0D8FD08B1FDF78CFE0E490C4800F062
:1027E000A8FF08B1FDF785FE0B49094800F0C1FBC1
:1027F00008B1FDF77EFE064801F014F8002803D06A
:10280000BDE81040FDF775BE10BD0000240000209B
:102810000C050020E401002084000020FEE7704742
:102820000148FEF7B3B90000DC0700202DE9F041B4
:10283000044600690D462027236801284FF400460E
:1028400004F5717203EB4511D3F840C0D1F8080BC1
:1028500009D0DFF89CE0F4453AD1020433D500BF3B
:10286000C1F8086B40E0234B5FEA007E04D59C452D
:102870003AD90004F4D437E05FEA806E02D5C1F89B
:10288000087B31E010F0280F2ED19C4501D90004BF
:10289000E6D4D1F8103BC5EBC50004EB8000C3F3D0
:1028A0001203D0F80412A1EB0303C0F81432D0F8DD
:1028B00008321944C0F8081295B9D4F8100278B952
:1028C000206801210AE080060AD5C1F8087B07E0EC
:1028D00035B9D4F8100218B90021184601F070FB80
:1028E0002046E9B2FEF738F80020BDE8F08100008C
:1028F0000A31544F0A30544F2DE9F84F0E460568FF
:102900008146C1EBC60100EB8104D4E914203C34BC
:10291000904202D90120BDE8F88FA168101A8142C7
:1029200000D20846C01C05EB461887081BE000BF14
:10293000A268A0EB010A524500D2924699F8101005
:102940000AF1030000911FFA8AF3E168870828461C
:10295000F2B201F0BDFDE16801EB0A00E060A1699F
:1029600001EB0A00A061D8F8180980B2B84205D37B
:10297000D4E90501814201D20028D9D1D4E9050169
:10298000884208D8D5F83418012006F00F0290408C
:102990008143C5F834180020BDE72DE9F84304460B
:1029A00040684FF482761546B04289464FF400479E
:1029B0004FF4806809D1A068B84201D0404504D1E5
:1029C0002068016821F04001016000224B4680210F
:1029D0002046009500F08AF880B96068B04214D1B2
:1029E000A068B84201D040450FD100224B464FF4B9
:1029F000C0612046009500F02EF830B1206E40F006
:102A0000200020660320BDE8F8830020FBE7F8B52E
:102A100015460E4604460B464FF4C0510092002264
:102A200000F019F888B9002233468021204600952D
:102A300000F05CF848B9002233464FF4C0612046EC
:102A4000009500F008F8002804D0206E40F0200027
:102A500020660320F8BD2DE9F0474FF4C0681D46FD
:102A600017460E46DDF8209004460CE0464501D19D
:102A700007B9007B681C06D0FDF746FEA0EB0900F5
:102A8000A84208D23DB1206881683140B942EDD1F9
:102A90000020BDE8F0872068416821F0E001416036
:102AA0006068B0F5827F0BD1A068B0F5004F02D00E
:102AB000B0F5806F04D12068016821F04001016009
:102AC000A06AB0F5005F09D12068016821F40051C7
:102AD00001602068016841F400510160012184F81F
:102AE0005D10002084F85C000320D2E72DE9F0415E
:102AF0001D4617460E460446DDF8188008E0681C9F
:102B000006D0FDF701FEA0EB0800A8420BD255B19C
:102B10002068806836EA000030D00020B842EED14C
:102B20000020BDE8F0812068416821F0E0014160AB
:102B30006068B0F5827F0BD1A068B0F5004F02D07D
:102B4000B0F5806F04D12068016821F04001016078
:102B5000A06AB0F5005F09D12068016821F4005136
:102B600001602068016841F400510160012184F88E
:102B70005D10002084F85C000320D2E70120CDE73F
:102B80000178407841EA00207047FFF71DFE0120E0
:102B900001F0A4FDFBE70000502010B572B680F3F1
:102BA0001188BFF34F8FBFF36F8F62B602F0E2FF61
:102BB00018B104494FF080500860002080F311885C
:102BC00010BD000004ED00E0F0B5B3B0302121A845
:102BD000FDF7C2FB14212DA8FDF7BEFB842168463A
:102BE000FDF7BAFBFEF76CFB2648016841F0805107
:102BF0000160006800F0805032902348016841F481
:102C00004041016000680224032500F440403290F6
:102C10001020E70381040126CDE92157CDE92741A2
:102C2000192229A9CDE924601301092781E89C0014
:102C300021A8FEF715FFFEF70DFB2FAF0021E302E1
:102C40004FF4A05287E80E000F20CDE92D04062195
:102C50002DA8FEF7BBFD20050090E90187011F9715
:102C6000031168460522CDE90514CDE90725CDE914
:102C70000A63FEF72DFB002211461046FEF7A6FE62
:102C800033B0F0BD403802400070004005484FF0BE
:102C900000610368034A43F470030360803A1160E3
:102CA0007047000088ED00E00148FFF714BC000009
:102CB000E01D0020F0B5274B4FF0804E264D0268F6
:102CC0009842264E264F274C09D0704507D0A8427F
:102CD00005D0B04203D0B84201D0A04205D1D1F80E
:102CE00004C022F070024CEA020298421BD07045E8
:102CF00019D0A84217D0B04215D0B84213D0A04284
:102D000011D0194DA8420ED0184DA8420BD0184D25
:102D1000A84208D0174DA84205D0174DA84202D0AE
:102D2000164DA84203D1CD6822F440722A434D6962
:102D300022F080022A43026098428A68C2620A68CE
:102D4000826201D0A04201D1096901630121416180
:102D5000F0BD0000000001400004004000080040F9
:102D6000000C0040000401400040014000440140CC
:102D70000048014000180040001C004000200040B6
:102D80002DE9F041D0F8C4220C46D0F8BC12F1B1C4
:102D900004EB8403002600EB8305AB694BB1C4EB65
:102DA000C40702EB8702526CB3FBF2F702FB173247
:102DB0007AB1C1F814622246D0F8C0020369D1F892
:102DC000080201F5047198470020BDE8F081032056
:102DD000FBE7002321461A46AE6100F08CFCF3E7C6
:102DE00070B5D0F8BC4205466CB100F092FBC4F857
:102DF0000C0204F50371D5F8C002C268D4F80402CD
:102E00009047002070BD032070BD70B500260446B9
:102E1000812100F0DAFA002520460121258700F003
:102E2000D4FA82212046A4F8785100F0CEFAD4F8E2
:102E3000BC02A4F84C50A4F84E5048B1D4F8C002DB
:102E400004F52F7440688047206801F075FB256009
:102E5000304670BD10B5D0E9AF4159B194F80002C9
:102E6000FF2807D08B68214694F801229847FF205D
:102E700084F80002002010BD0A210180004870473C
:102E80000C01002043210180004870475C010020B4
:102E90004321018000487047180100204321018030
:102EA00000487047A00100202DE9F04704464FF488
:102EB000077001F0DDFB05004FF0000735D0207CE6
:102EC00001264FF400794FF01008C4F8BC5280B3CB
:102ED000402320460222812100F064FB4023268704
:102EE00002222046012100F05DFBA4F8786108234E
:102EF000032220468221A4F84E8000F053FBA4F860
:102F00004C60D4F8C00200688047C5F81472C5F858
:102F10001872207CD5F80422A8B140232046012154
:102F200000F04CFB0020BDE8F0870220C4F8BC7222
:102F3000F9E7FFE702224B468121204600F032FBF1
:102F40004B462687CCE74B46E8E710B5D0F8BC12D5
:102F500051B1027C002AD1F8042207D0402301217C
:102F600000F02CFB002010BD032010BD4FF40073B7
:102F7000F5E719B1C0F8C012002070470320704770
:102F8000D0F8BC02C0F8041200207047D0F8BC0290
:102F9000C0F81022C0F80812002070472DE9FC414B
:102FA00005460C4600200646D5F8BC728DF8000098
:102FB000ADF80400087810F0600122D020293ED13D
:102FC000E288B2B1000608D5D5F8C0023946836858
:102FD00060789847E288394629E06078394687F872
:102FE0000002A07987F801022846E28800F06DF817
:102FF0002AE0D5F8C002002221468368607898470D
:1030000022E0607830B101281ED00A2809D00B28B0
:1030100015D110E095F89C02032810D1022201A9D5
:1030200005E095F89C02032809D10122694628464B
:1030300000F065F808E095F89C02032804D02146CA
:10304000284600F037F803263046BDE8FC8110B56D
:10305000D0F8BC12012219B1D1F8143213B10FE02B
:10306000032010BD0122C1F81422D1F81022C2623F
:10307000D1F81032D1F80822812100F03CFB002267
:10308000104610BD10B5D0F8B8220AB1526890476A
:10309000002010BD13460A46002110B500F08EFA3C
:1030A000002010BD13460A46002110B500F023FB96
:1030B000002010BD10B58021044600F001FB204621
:1030C000BDE81040002100F0FBBA10B5C0F858214F
:1030D0000323C0F894321346C0F85C210A4600214D
:1030E00000F06CFA002010BD0521002310B51A462F
:1030F000C0F89412194600F061FA002010BD10B516
:1031000082610223C0F894321346C2610A4600214C
:1031100000F0F1FA002010BD0421002310B51A467A
:10312000C0F89412194600F0E6FA002010BD000025
:1031300004A00A46024910B500F0F3F8004810BD9B
:10314000E00B002043444320436F6E666967000034
:1031500012200880004870474800002004A00A465A
:10316000024910B500F0DDF8004810BDE00B00206A
:1031700043444320496E74657266616365000000D4
:1031800004200880004870474400002004A00A463C
:10319000024910B500F0C5F8004810BDE00B002052
:1031A00053544D6963726F656C656374726F6E69B9
:1031B0006373000004A00A46024910B500F0B1F89C
:1031C000004810BDE00B002053544D3332205669A7
:1031D000727475616C20436F6D506F7274000000E3
:1031E00010B51A2008800B480A490830021F0968E8
:1031F00000681468081809D007490822FFF738FA50
:103200000549042220461031FFF732FA0248801E99
:1032100010BD000020F4F01F6A0000200C20088080
:10322000004870475C000020F8B504460D460020B9
:10323000ADF800004888010A062947D006DC0129BC
:103240000FD0022912D0032962D11DE0072946D0F0
:103250000F295DD1D4F8B402C26920E069469047D5
:103260003BE0D4F8B412207C0A68F7E7207C022601
:103270000028D4F8B80205D0C16A684688470146DC
:10328000467036E0816AF8E7C0B2062840D2DFE82F
:1032900000F003090D111519D4F8B4024268B2B355
:1032A000207CDBE7D4F8B4028268F8E7D4F8B402F3
:1032B000C268F4E7D4F8B4020269F0E7D4F8B402C3
:1032C0004269ECE7D4F8B4028269E8E7207CF0B9FF
:1032D000D4F8B802416B68468847014609E0207C73
:1032E000A8B9D4F8B802016B6846884701460720A0
:1032F0004870EA888AB1BDF8000040B1824200D926
:1033000002462046ADF80020FFF7F9FEF8BDFFE7C2
:1033100029462046FFF7CEFEF8E72046FFF7FCFEE1
:10332000F4E770B500284FF000051ED004462E4685
:1033300002E0761C641CF6B22378002BF9D102243B
:1033400004EB4604148012786B1C03264A550024B3
:10335000AA1CCE5406E0551C8B54EAB2531C401CE8
:103360008C54DAB20378002BF5D170BD01004FF018
:10337000000004D0012901D0022901D003207047A8
:103380000120704730B4A0B1D0F8B84200230CB18E
:10339000C0F8B832D0F8CC420CB1C0F8CC3209B188
:1033A000C0F8B4120121027080F89C1230BC00F009
:1033B000B5B830BC0320704710B5D0F8C402FDF793
:1033C000FFFABDE81040FFF7D1BF10B5D0F8C40236
:1033D000FDF7D0FABDE81040FFF7C8BF70B516463C
:1033E000044649B1D4F8B80242691AB194F89C0273
:1033F000032842D0032070BDD4F89412002504F1B4
:103400001400022932D1D0E90232934206D99A1A25
:10341000314682602046FFF745FE0FE09A4214D104
:103420004068904211D3D4F8981288420DD20022FD
:1034300020461146FFF736FEC4F8985200231A467C
:103440001946204600F0BAF810E0D4F8B802C16876
:1034500029B194F89C02032801D120468847802195
:10346000204600F02DF92046FFF73EFE94F8A0021A
:10347000012806D184F8A05203E020469047002896
:10348000B9D1002070BD10B51346044649B1D4F837
:10349000B80282691AB194F89C02032824D0032050
:1034A00010BDD4F8941204F5AA70032920D1D0E9F4
:1034B000021291420AD98A1A8260C068824200D3FD
:1034C000024619462046FFF7E5FD11E0D4F8B802A0
:1034D000016929B194F89C02032801D1204688474C
:1034E0002046FFF719FE03E0204690470028D7D179
:1034F000002010BD0020704710B5D0F8B81201228E
:1035000080F89C2219B103794A68D9B2904700200B
:1035100010BDD0F8C402FDF781BA000070B5017883
:1035200039BB15490022022306254FF0A044C1F8FB
:103530000004C0F8C4120846C1E90332C1E90632EA
:103540000A624A62CA620A63C1E90045FDF760FD8A
:1035500008B1FCF7CEFF08488021FDF7C9F90648FD
:1035600040220021FDF7C8F9034880220121FDF720
:10357000C3F9002070BD0000DC070020D0F8C42291
:1035800001F07F000B06C0EBC00002EB800002D50B
:1035900090F83E00704790F8FE0170470020704799
:1035A0000020704710B51C46D0F8C40213462246CE
:1035B000FDF73DFABDE81040FFF7D8BE10B5D0F8D2
:1035C000C402FDF764FABDE81040FFF7CFBE70B546
:1035D000044601250020D4F8BC1284F89C52C4F89B
:1035E00094026060C4F8A40229B1D4F8B8020021A2
:1035F0004268204690470022204640231146FFF7AC
:10360000D1FF4026A4F86451002233468021204691
:10361000C4F86061FFF7C6FFA5840020266270BD74
:1036200090F89C12042903D190F89D1280F89C1206
:103630000020704710B590F89C12032904D1D0F8EF
:10364000B812C96901B18847002010BD017400207B
:10365000704710B5D0F8C402FDF7B4FDBDE81040C6
:10366000FFF784BE70B5044600F2AA20054600F0BC
:103670004BF8B4F8B032012194F8AA0210F01F02FE
:10368000C4E9A5130AD0012A0ED0022A12D000F0F4
:1036900080012046BDE8704000F012B8294620465F
:1036A000BDE8704000F0C0B829462046BDE8704033
:1036B00000F0EBB929462046BDE8704000F03FB964
:1036C00010B5D0F8C402FDF704FABDE81040FFF7CA
:1036D0004DBE10B5D0F8C402FDF78FFDBDE8104017
:1036E000FFF744BE90F89C22042180F89D2280F8C8
:1036F0009C120020704710B5D0F8C402FDF723FAE1
:10370000BDE81040FFF732BE70B5054608788C1C46
:103710002870487868702046FFF732FAA41C688049
:103720002046FFF72DFAA880A01CFFF729FAE880B1
:1037300070BD38B504460020ADF8000041B1C4F8B2
:10374000B8126846896A8847C4F8CC02002038BDA0
:10375000032038BDD0F8B83202460320002B02D037
:103760001B681046184770472DE9F0412C4E04465F
:10377000887800250F46C1B20129317006D9394633
:103780002046FFF797FC0320BDE8F08194F89C02E7
:1037900002280CD003281DD039462046FFF78AFCAA
:1037A00031782046FFF76EFC03252846ECE799B3F5
:1037B00020466160FFF7CEFF050004D03946204661
:1037C000FFF778FCF1E72046FFF7A6FC032084F81A
:1037D0009C02EAE74FF00208C1B1606888421BD042
:1037E000C1B22046FFF74EFC317820466160FFF7FA
:1037F000B1FF050010D039462046FFF75BFC217968
:103800002046FFF73FFC84F89C82CEE761602046AB
:1038100084F89C82FFF736FC2046FFF77DFCC4E766
:1038200008010020FFF755BF2DE9F0410A784FF05D
:10383000000512F0600208D0202A01D0402A71D180
:10384000D0F8B8229268904731E04B7800220126E8
:103850000A2B67D2DFE803F0415E6658660805660A
:103860002D29FFF7E1FC5FE004468888D8B9C888B5
:10387000C8B94888802816D294F89C2200F07F07A7
:10388000032A10D03946204684F89E72FFF7E1FEE5
:103890002046FFF741FC1FB1022084F89C0243E060
:1038A00084F89C6240E020463CE0FFF75DFF05465F
:1038B0003AE0CB88012B35D190F89C32012B04D013
:1038C000022B02D0032B2DD104E000F1080182600D
:1038D000012216E00122011D13E090F89C22012A2A
:1038E00003D0022A01D0032A1CD1CA88022A19D186
:1038F000D0F8A412C66009B10321C160022200F110
:103900000C01FFF7FCFB0FE0498801290CD1C0F83E
:10391000A46211E090F89C32012B08D0022B06D053
:10392000032B04D0FFF7C6FB2846BDE8F081498889
:103930000129F9D1C0F8A422FFF7EEFBF4E72DE945
:10394000F0410446087800270D46097910F0600020
:103950000BD0202801D0402873D1D4F8B8022946D2
:1039600082682046904707468CE06878D8B30128E3
:1039700022D0032865D194F89C02022802D00328A3
:103980007CD10BE0002979D0802977D02046FFF741
:1039900097FE80212046FFF793FE73E0688838B9D0
:1039A00031B1802904D0E88810B92046FFF788FE9D
:1039B0002046FFF7B1FB65E094F89C020228E1D0B5
:1039C00003285BD16888D8BB480602D02046FFF7A1
:1039D000F3FC2046FFF7A0FBD4F8B8022946826822
:1039E000204690474EE0FFE794F89C02002602280C
:1039F00002D0032842D111E009B180293ED1080646
:103A000001F07F0000EB800004EB800101D5143150
:103A100001E001F5AA7102220E602BE0080601F018
:103A20000F0000EB800004EB80000BD5808C40B1D0
:103A300001F07F0000EB800004EB800514350CE002
:103A400020E01BE0B0F86401C0B101F07F0000EBA2
:103A5000800004EB800505F5AA7541B1802906D0E8
:103A60002046FFF78BFD10B10120286000E02E609A
:103A7000022229462046FFF742FB03E02946204662
:103A8000FFF718FB3846BDE8F08170B506460878A8
:103A90000D464FF0000410F0600003D0202801D044
:103AA000402817D196F89C02012803D0022801D0A3
:103AB00003280FD1287901280CD8D6F8B8028268DB
:103AC000304690470446E888204306D13046FFF749
:103AD00023FB02E03046FFF7EDFA204670BD000000
:103AE00070B54D7801230A78012D1C4C02F00F05AA
:103AF00003FA05F3D0F81C5817D000EB421245EA40
:103B00000343C0F81C38D2F8000B00040BD40B8917
:103B1000C978D2F8000BC3F30A03184344EA814181
:103B20000843C2F8000B002070BD9EB23543C0F8B8
:103B30001C5800EB4213D3F800090004F3D40D899C
:103B4000C978D3F80009C5F30A058904284341EA76
:103B5000825108432043C3F80009E4E700800010C5
:103B6000D0F800196FF30A01C0F80019D0F8041852
:103B700041F48071C0F804180020704770B5044605
:103B80000698049D0D99012815D0E06840F040008A
:103B9000E060204600F028F8A16B41F48031A16379
:103BA000012D07D1A16841F00601A160A16841F093
:103BB0002001A16070BDA06B01290A4A20F4803069
:103BC000A063E06800EA0200E060E06820F44010D2
:103BD000E06003D1E06840F48010E060204600F02F
:103BE00003F8DDE7BFFFBDFF0C49012202E0521CD4
:103BF0008A420BD80369002BF9DA0369012243F0EA
:103C00000103036104E0521C8A4201D9032070477A
:103C10000369DB07F7D1002070470000400D030067
:103C200070B50A7801234C78012C00EB42122CD09D
:103C3000D2F8004B002C0BDAD2F8004B44F00064B1
:103C4000C2F8004BD2F8004B44F08044C2F8004B5D
:103C50000C78D0F83C5804F00F0403FA04F425EA79
:103C60000444C0F83C480978D0F81C4801F00F0122
:103C70008B401C4924EA0343C0F81C38D2F8000BDF
:103C80000840C2F8000B002070BDD2F80049002C9B
:103C90000BDAD2F8004944F00064C2F80049D2F8C7
:103CA000004944F08044C2F800490D78D0F83C48FF
:103CB00005F00F050C4E03FA05F5ADB2AC43C0F8A4
:103CC0003C48D0F81C48097801F00F018B4099B2AC
:103CD0008C43C0F81C48D2F800093040C2F80009F3
:103CE000D1E700000078F3EF007833EC10B5D0F89E
:103CF000041821F00201C0F804180320FCF7FAFBB5
:103D0000002010BD10B5D0F8041841F00201C0F831
:103D100004180320FCF7EEFB002010BD2DE9F04F46
:103D20000E4604460021DDF824B00D46109F0846DB
:103D3000DDF82C2004EB800CCCF80411401C0F287B
:103D4000F8D32046B7B1806B40F4001CC4F838C0EB
:103D500088460846C4F8000E2046D4F80018012A08
:103D6000C4F8001839D0032A37D0D0F8001841F031
:103D7000030117E0D0F8040840F0020CC4F804C8AE
:103D8000A06B20F4001CC4F838C0206840F0400C40
:103D9000C4F800C0206840F0800CC4F800C0D7E729
:103DA00041F00101C0F80018102100F097FA00B1AD
:103DB0000125204600F082FA00B1012540464FF06F
:103DC00000694FF67F334FF0904AC4F81088C4F86A
:103DD0001488C4F81C88002119E0D0F80018002BC2
:103DE000E0D0DDE704EB4112D2F800C9BCF1000FCE
:103DF00006DA11B1C2F800A904E0C4F8009901E0A4
:103E0000C2F80009C2F81009C2F80839491C8E42EC
:103E1000E8D8002115E000BF04EB4112D2F800CB36
:103E2000BCF1000F06DA11B1C2F800AB04E0C4F82F
:103E3000009B01E0C2F8000BC2F8100BC2F8083B6F
:103E4000491C8E42E8D8D4F81038BBF1000F6FF04F
:103E5000804223F48073C4F81038A061626103D1FA
:103E6000A06940F01000A061A069094A0C9940EADD
:103E70000200A06119B1A06940F00800A061012F03
:103E800003D1A06903490843A0612846BDE8F08F2B
:103E900000383C8004000040816821F0010181600D
:103EA0000020704770B50B784E78444C0D78012E89
:103EB00000EB431320D0D3F8100B6FF31200C3F8BC
:103EC000100BD3F8100B2040C3F8100B486908B151
:103ED00088684861D3F8100B012A40F40020C3F829
:103EE000100BD3F8100B8A68C2F3120240EA0200EA
:103EF000C3F8100B56D059E04E69002ED3F8106964
:103F000033D06FF31206C3F81069D3F81069264056
:103F1000C3F810694E698C68A64200D94C61D3F889
:103F2000104944F40024C3F81049D3F810494E69ED
:103F3000C6F3120654EA0604C3F81049012A22D037
:103F400000EB4512D2F8003943F00443C2F80039BF
:103F50004A6932B30B78D0F83418012203F00F030A
:103F60009A401143C0F8341826E02640C3F810697F
:103F7000D3F8104944F40024C3F81049D3F8104989
:103F80006FF31204D8E7096919B100EB4512C2F8C2
:103F9000141900EB4510D0F8001941F00441C0F8A5
:103FA000001909E0C86808B1C3F8140BD3F8000B76
:103FB00040F00440C3F8000B002070BDFFFF07E095
:103FC00010B5144C036CA34203D9D0F8003B002B6E
:103FD0001EDB0023C0F8103B0129D0F8101B41F470
:103FE0000021C0F8101BD0F8101B41F01801C0F8D8
:103FF000101BD0F8101B41F0C041C0F8101B07D1B6
:10400000C0F8142BD0F8001B41F08021C0F8001B31
:10401000002010BD0A30544F0B784A78012A00EB7B
:1040200043100BD0D0F8002B22F40012C0F8002B64
:10403000C978032914D0022912D017E0D0F800293A
:1040400022F40012C0F80029C978032901D00229FE
:104050000CD1D0F8001941F08051C0F8001905E0EA
:10406000D0F8001B41F08051C0F8001B00207047C1
:104070000A784B78D1B2012B00EB421012D0D0F865
:10408000002B002A06DB29B1D0F8001B21F080416B
:10409000C0F8001BD0F8001B41F40011C0F8001B51
:1040A00000207047D0F80029002A06DB29B1D0F89B
:1040B000001921F08041C0F80019D0F8001941F42E
:1040C0000011C0F80019EBE7F8B50B786FF0604607
:1040D0004F78764DDCB2012F00EB431326D0D3F896
:1040E000104B6FF31204C3F8104BD3F8104B2C4055
:1040F000C3F8104B4C698D68002C74D0D3F8107B3A
:104100002C44641EB4FBF5F4A4B206EAC4452F4364
:10411000C3F8107BD3F8105B8E686643C6F31204B5
:104120002543C3F8105B012A72D0A6E04F6927B37C
:10413000D3F810796FF31207C3F81079D3F8107918
:104140002F40C3F810794F698D68D3F810C92F44F8
:104150007F1EB7FBF5F506EAC54545EA0C05C3F831
:104160001059D3F810594E69C6F312063543C3F8F7
:104170001059CD78012D10D01BE0D3F810692E40D6
:10418000C3F81069D3F8105945F40025C3F8105945
:10419000D3F810596FF3120509E0D3F8105925F040
:1041A000C045C3F81059D3F8105945F00055C3F86D
:1041B0001059012A18D000EB4413D3F8004944F0F9
:1041C0000444C3F80049CC78012C2FD04A6962B36B
:1041D0000B78D0F83418012203F00F039A401143F2
:1041E000C0F834185FE036E00A691AB100EB4413F6
:1041F000C3F81429C97801290FD1D0F80818C905C6
:1042000000EB4411D1F8002903D442F0005202E03F
:104210002FE042F08052C1F8002900EB4410D0F8A2
:10422000001941F00441C0F800193CE0D0F80848FA
:10423000E405D3F8004902D444F0005401E044F00E
:104240008054C3F8004900928B8A0A78C9689BB2EF
:1042500000F03EF927E0D3F8104BC5F312052C43CC
:10426000C3F8104BD3F8104B44F40024C3F8104BA0
:1042700059E7CA680AB1C3F8142BC97801290CD1CF
:10428000D0F80808C005D3F8000B02D440F0005065
:1042900001E040F08050C3F8000BD3F8000B40F071
:1042A0000440C3F8000B0020F8BD0000FFFF07E04A
:1042B000816841F00101816000207047064A1021A9
:1042C00001610021491C914201D903207047036913
:1042D000DB06F7D400207047400D03002023074A77
:1042E00043EA811303610021491C914201D9032053
:1042F000704703699B06F7D400207047400D030008
:10430000D0F8080810F0060004D0022803D00628D0
:1043100001D00F20704702207047406900F0010073
:104320007047D0F81818D0F81C08084080B27047C1
:10433000D0F81818D0F81C080840000C704710B5C9
:10434000D0F8102801F00F0300EB4114D0F8341816
:10435000D4F80809D94001F0010142EAC11108402E
:1043600010BD00EB4111D1F8081BD0F8140808402B
:1043700070474169806908407047D21C00F5805041
:104380009308002210B502E00468521C10C19A4242
:10439000FAD3084610BD10B5C268012922F0C04208
:1043A000C26002D029B1012010BDC16841F00051A6
:1043B00002E0C16841F08041C1603220FCF79AF808
:1043C000002010BDD0F800284FF4FE6303EA01136B
:1043D00022F4FE62C0F80028D0F800181943C0F893
:1043E0000018002070470000022A3ED1264A274BC1
:1043F0000A449A4201D20F2138E0254A254B0A444B
:104400009A4201D20E2131E0234A244B0A449A42B7
:1044100001D20D212AE0224A224B0A449A4201D2BB
:104420000C2123E0204B214A0B44934201D20B2163
:104430001CE01F4B1F4A0B44934201D20A2115E096
:104440001D4B1E4A0B4493420FD31D4B1D4A0B4478
:10445000934201D2082109E01B4B1C4A19449142A6
:1044600001D2072102E0062100E00921C2684FF4D1
:10447000705322F47052C26003EA8123C168194369
:10448000C160002070470000405327FF00350C003A
:10449000401E1BFF40420F0000DC0BFF804F12004C
:1044A000808CF9FE20D6130060B6E5FE60E31600AE
:1044B00000D3CEFE40771B00C05BB3FEC09121004D
:1044C00000CA91FE20753800E05459FEE09C41007E
:1044D00010B5029C64B900EB0230DB1C00229B0883
:1044E00000F5805002E010C90460521C9A42FAD3D1
:1044F000002010BDFEE7090700284FEA116104DB28
:1045000000F1E02080F80014704700F00F0000F187
:10451000E02080F8141D704702E008C8121F08C18F
:10452000002AFAD170477047002001E001C1121F34
:10453000002AFBD17047000010B5002821D0114B94
:104540000022001F196803E0814203D80A46496827
:104550000029F9D152B11368841A9C4204D1006831
:1045600018441060104602E0506000E0186039B155
:1045700002680B1A934203D10B681A44026049681F
:10458000416010BD1C020020264821228AB0002173
:10459000027041708170C1700171FCF7C3F8FEF7C1
:1045A00013FBFEF781F8FEF7EDF8012000F088FE1E
:1045B0001C4C183C0028606132D0002230210A20B7
:1045C00000F089FE206160B317491C2202A8FBF7A6
:1045D000AAFE002102A800F08DF801252146E06026
:1045E00000232C021448CDE9005110A1224601F00D
:1045F00057FA0C48002311A122461438CDE9005087
:10460000114801F04DFA0748002310A12246103846
:10461000CDE90050114801F043FA00F066F8FEE7DA
:10462000FEE7FEE718000020C05E00085461736BCF
:104630005F4C454400000000555100085461736B05
:104640005F56636F6D000000BD5100085461736BCD
:104650005F4D6F746F7243726C00000071510008FF
:10466000842801464FF0000000D0C81C70470000AD
:10467000F0B50B30154D20F007010024144A0FE06F
:1046800003688B420BD38B4205D95E1A43184768E7
:10469000C3E9006700E04368136002C004E0021D44
:1046A00010680028ECD12046002802D1286808B103
:1046B0000020F0BD064A07481060074A121A22F08F
:1046C0000702C0E9002401202860D7E7200200206B
:1046D0001C020020145B0020107B002010B500B9E4
:1046E000012000F01BFC002010BD10B500F0C2FC42
:1046F000002010BD7FB50D4641690446B0F90800A1
:1047000081B1A16971B1FFF7ABFFD4E905122B4666
:104710008DE807002269D4E9001001F0EEF903905A
:1047200004B070BDFFF79CFF03A92B46CDE9000143
:10473000228AD4E9001092B201F0B2F9012801D026
:104740000020EDE70398EBE72DE9F041184C0F4608
:10475000054666692068001D00F0E2FA38B9226853
:104760000121A06992F82C2091408843A061681C27
:1047700007D137B12168BDE8F0410E48091D00F0AE
:1047800015BB20683544B5424560216805D2A06854
:10479000091DBDE8F04100F0F1BA6068091D00F0A4
:1047A000EDFA206B854200D22563BDE8F081000060
:1047B000A8000020FC1E00202DE9F041054600F075
:1047C00001FB2E4C2E4F2069401C2061206810B147
:1047D000E06940B32DE025602069012829D1002639
:1047E00006EB860007EB800000F0BAFA761C072E75
:1047F000F6D323488C3000F0B3FA2148A03000F003
:10480000AFFA1F48B43000F0ABFA1D48C83000F0D2
:10481000A7FA1B48DC3000F0A3FA19488C3060601E
:104820001430A06005E0E86A2168C96A814200D8B6
:1048300025600120E16A491CE162E96AA2698840B9
:104840001043A06101EB8100291D07EB800000F0FF
:10485000ADFA00F0DBFAE06900280CD02068E96AC4
:10486000C06A884207D207494FF080500860BFF302
:104870004F8FBFF36F8FBDE8F0810000A8000020CC
:10488000201E002004ED00E030B4026C0B46002A2C
:104890000BD0D0E902411144C160A14201D30168AB
:1048A000C160184630BCFBF73EBD30BC70472DE9F7
:1048B000F041856B1746026C0446002682B1C7B1F1
:1048C000E068FBF730FDE168206C2268091AE160BE
:1048D000914202D2A168081AE060022F16D017E0B8
:1048E0002068A8B9A06801F0ABF906460020A060D6
:1048F0000EE06068FBF717FDD4E90101226C10445B
:104900006060884204D32068606001E005B16D1EDC
:104910006D1CA5633046BDE8F08110B5044690F8E3
:10492000510068B101280ED0022811D0502072B673
:1049300080F31188BFF34F8FBFF36F8F62B6FEE72E
:10494000206B00F079FA2046BDE8104000F074BA00
:1049500010BD000011484FF4705110B5420706D049
:104960000E49C01D20F00700411AC1F570510C4CD2
:10497000002301440839A4F1100221F00701C4E921
:1049800000030C1A11604B600B60C0E900149460C6
:104990004FF000415460D16010BD0000101F002096
:1049A000F4000020144E4FF08058144CDFF8509063
:1049B000A6F1C80712E000BF00F004FAF068C5686D
:1049C000281D00F0ADF92069401E2061E068401EFE
:1049D000E06000F01BFA2846FFF79FFFE068002820
:1049E000EAD138680128F9D9C9F80080BFF34F8FA0
:1049F000BFF36F8FF2E70000E81E0020A800002040
:104A000004ED00E0002807D00021816001600B4622
:104A10000A46C16000F0D2BC70470346009829B135
:104A20000260C0E90F31012100F07CBC0060F8E7B2
:104A30002DE9F0479A4681466FF00303DDE90984CA
:104A400003EB8202089E206B104420F007077807D2
:104A500009D0502072B680F31188BFF34F8FBFF397
:104A60006F8F62B6FEE74FF0000561B1002023189A
:104A70000A5C83F834200A5C12B1401C1028F6D37B
:104A800084F8435001E084F83450072E00D3062602
:104A9000E662201DC4E9116500F06DF904F118000B
:104AA00000F069F9E564C6F10700A06184F8505090
:104AB0005246246149463846646200F019F9B8F15B
:104AC000000F206001D0C8F80040BDE8F08700006A
:104AD00030B5114900E011460A688242FBD34B68A9
:104AE0005C18844203D14468084623444B60436801
:104AF0001D18954209D1084C103C2468A24209D0E7
:104B000052681A4442600A6812680260814200D00A
:104B1000086030BD0460F9E7F400002010B50446D9
:104B200000F050F9A06B28B15FF0000400F06EF9BE
:104B3000204610BD0124F9E706484168096829B1FB
:104B40004168C968C9684968016370474FF0FF311F
:104B5000FAE70000A80000200A484068401C4FF017
:104B6000500072B680F3118805D0BFF34F8FBFF3AA
:104B70006F8F62B6FEE7BFF34F8FBFF36F8F62B6E2
:104B8000FEE70000FC0000202DE9F041044600F0A3
:104B900019F994F9455004F1240609E0606A48B116
:104BA000304601F0EDF808B100F0E8F96D1E6DB285
:104BB000002DF3DC4FF0FF3684F8456000F026F955
:104BC00000F000F994F9445004F1100709E020695D
:104BD00048B1384601F0D4F808B100F0CFF96D1EA5
:104BE0006DB2002DF3DC84F84460BDE8F04100F0C4
:104BF0000DB900002DE9F0410027044600F072FADB
:104C0000344E306808B9FFF7A5FEF06804424FD172
:104C1000E4B30834600710D004F00700C0F10800C6
:104C20000444600709D0502072B680F31188BFF3A6
:104C30004F8FBFF36F8F62B6FEE73CB3706884425C
:104C400036D82448103001460D6801E028460D464C
:104C50006968A14202D229680029F7D131688D42E2
:104C600026D007682968016008376868011B102989
:104C700011D9281942070AD0502072B680F3118842
:104C8000BFF34F8FBFF36F8F62B6FEE710E0416056
:104C90006C60FFF71DFF69687068401A7060B26849
:104CA000904200D2B0600020F2681143C5E90001D3
:104CB00001F0A2F8780709D0502072B680F311886D
:104CC000BFF34F8FBFF36F8F62B6FEE73846BDE884
:104CD000F0810000E40000200449086818B1086869
:104CE000826C521C8264086870470000A800002093
:104CF00070B5041F094E231F4FF0807521F001018C
:104D000025601C1F1960A0F120010B1F266044388C
:104D10000A606FF002051D6070BD0000594B00086D
:104D2000D0E9013201699A60D0E901235A604A68EA
:104D3000824201D182684A60002202610868401EF6
:104D4000086008687047000010B5044C80230460B8
:104D500004F154000860136010BD0000B802002088
:104D60004FF0FF3300F108010022C0E90113026097
:104D7000C1600161704700210161704730B50B6867
:104D80005A1C02D000F1080202E0026904E0224647
:104D9000546825689D42FAD953684B6099608A60CF
:104DA000516008610168491C016030BD42684A6079
:104DB00093688B6093685960916008610168491C31
:104DC00001607047502072B680F31188BFF34F8F97
:104DD000BFF36F8F0B4962B64868401C48600128DA
:104DE0000ED10948006810F0FF0F09D0502072B6AC
:104DF00080F31188BFF34F8FBFF36F8F62B6FEE76A
:104E000070470000FC00002004ED00E009494868FC
:104E100028B1401E486001D180F3118870475020AE
:104E200072B680F31188BFF34F8FBFF36F8F62B6F6
:104E3000FEE70000FC00002070B500282BD0164DC6
:104E4000A0F108046068E968084209D1502072B6F0
:104E500080F31188BFF34F8FBFF36F8F62B6FEE709
:104E600022684AB1502072B680F31188BFF34F8F89
:104E7000BFF36F8F62B6FEE78843606000F032F9DF
:104E800060686968084468602046FFF721FEBDE855
:104E9000704000F0B1BF70BDE40000204FF0E02092
:104EA000002101614FF47A72816107230349096887
:104EB000B1FBF2F1491E416103617047A40000207B
:104EC00010B5FBF7E9F91349102810D300F1E020E1
:104ED0000A7890F8F003904209D2502072B680F31D
:104EE0001188BFF34F8FBFF36F8F62B6FEE70A489A
:104EF0008968006800F4E060884209D9502072B6E1
:104F000080F31188BFF34F8FBFF36F8F62B6FEE758
:104F100010BD0000FC0000200CED00E0020010B508
:104F200016D01048806B48B1502072B680F31188BB
:104F3000BFF34F8FBFF36F8F62B6FEE700F0D2F87A
:104F400000211046FFF700FC00F056FF002807D1B3
:104F500005494FF080500860BFF34F8FBFF36F8F4C
:104F600010BD0000A800002004ED00E002498A6A9C
:104F70000260496941607047A80000200149012092
:104F800048627047A800002010B50C4650B10A498D
:104F900009681831FFF7F2FE2046BDE810400121F4
:104FA000FFF7D2BB502072B680F31188BFF34F8F4A
:104FB000BFF36F8F62B6FEE7A800002070B500282F
:104FC000044651D0A26CB2B1606C884200D3014655
:104FD000E06A884248D0012A46D1244D2A6894428A
:104FE00013D1502072B680F31188BFF34F8FBFF3F7
:104FF0006F8F62B6FEE7502072B680F31188BFF360
:105000004F8FBFF36F8F62B6FEE7A269E162002A9D
:1050100002DBC1F10701A161154E00EB800061695F
:1050200006EB800081421FD1201DFFF779FE00288A
:105030004FF001000AD1E16A01EB810256F822200B
:1050400022B9AA6900FA01F18A43AA61E16AAA6950
:1050500088401043A86101EB8100211D06EB800010
:10506000BDE87040FFF7A2BE70BD0000A8000020A0
:10507000201E002010B586B0002405AA04A90394C0
:1050800003A80494FFF760FEDDE903010094002308
:10509000CDE9011011480FA1059A00F02EFD10492D
:1050A0000028486313D0502072B680F31188BFF3F4
:1050B0004F8FBFF36F8F62B601224FF0FF3008634E
:1050C000CA614C6106B0BDE8104000F099B806B066
:1050D00010BD000049444C4500000000A5490008EF
:1050E000A80000200248816B491C816370470000C2
:1050F000A80000201548816B11B101214162704761
:105100000021416212498269B2FA82F2C2F11F02A1
:1051100002EB820251F822306BB101EB820101F106
:1051200008034A6852684A609A4201D152684A604C
:10513000D16801607047502072B680F31188BFF3C8
:105140004F8FBFF36F8F62B6FEE70000A80000200C
:10515000201E0020054C4FF47A7502212046FBF7F3
:10516000C7FA2846FFF7DAFEF7E700000020024002
:105170004FF47A760D4C41F288357700206820F0A4
:10518000400020600A4905220A482B46FCF77FFFB1
:105190000949052207483346FCF7B8FE206840F06D
:1051A000400020603846FFF7B9FEE7E714140240DC
:1051B00018000020240200201D0000200D4D0E4C80
:1051C00000220E49286800F06DFA0128F8D1206805
:1051D000002100F05FFB0128F2D108480121FBF714
:1051E00071F90028F9D1002320681A46194600F009
:1051F000E5F8E5E7100000201400002088020020F8
:105200002B49FF201CB50A780192087008788DF8A8
:1052100000009DF800209DF8000002F0F00282429C
:1052200009D0502072B680F31188BFF34F8FBFF3BF
:105230006F8F62B6FEE79DF8002007201D4C02F03C
:1052400050022270A06005E09DF8002052008DF809
:105250000020401E9DF800201206F5D40328A0600F
:1052600009D0502072B680F31188BFF34F8FBFF37F
:105270006F8F62B6FEE74FF44070A060019808702F
:105280000D48016841F470010160016841F070410E
:105290000160FFF703FE00206060FAF7C3FF0748D4
:1052A000016841F040410160FAF7A8FF00201CBDF1
:1052B00000E400E0FC00002020ED00E034EF00E01E
:1052C00000210246012010B500F005F80446FFF762
:1052D00099FB204610BDF8B5050017460E4614D0C0
:1052E000EEB105FB06F04830FFF784FC04000AD05D
:1052F000002084F8460004F148023B463146284627
:105300000094FFF78AFB2046F8BD502072B680F368
:105310001188BFF34F8FBFF36F8F62B6FEE7002097
:10532000E1E700002DE9F04704008A4629D0FFF7A5
:1053300049FD21680025D4E90F23D4F840C004F1C9
:10534000100810460E46401E4FF0FF3902FB0312B4
:1053500000FB0C10BAF1000FA563666084F844905E
:1053600084F84590C4E9022015D04046FFF7F8FCC8
:1053700004F12400FFF7F4FCFFF748FD0120BDE82D
:10538000F087502072B680F31188BFF34F8FBFF3C0
:105390006F8F62B6FEE720690028EDD0404600F02E
:1053A000EFFC0028E8D004494FF080500860BFF3BC
:1053B0004F8FBFF36F8FDFE704ED00E02DE9FF476C
:1053C00004001D4682B08A464FF0000803D0BAF1AF
:1053D000000F0AD015E0502072B680F31188BFF399
:1053E0004F8FBFF36F8F62B6FEE7206C48B150203D
:1053F00072B680F31188BFF34F8FBFF36F8F62B621
:10540000FEE7022D0CD1E06B012809D0502072B6C6
:1054100080F31188BFF34F8FBFF36F8F62B6FEE743
:1054200000F09AFB404F4FF080564FF0000958B9FA
:10543000049848B1502072B680F31188BFF34F8FA3
:10544000BFF36F8F62B6FEE7FFF7BCFCA06BE16BAA
:10545000884207D3022D05D00498D0B1B8F1000FCF
:105460001AD01EE02A4651462046FFF720FA616A0C
:1054700019B104F1240000F083FC20B13E60BFF3B9
:105480004F8FBFF36F8FFFF7C1FC012006B0BDE85F
:10549000F087FFF7BBFC22E06846FFF767FD4FF09F
:1054A0000108FFF7B3FCFFF71DFEFFF78BFC94F933
:1054B0004400401C01D184F8449094F94500401CFC
:1054C00001D184F84590FFF7A1FC04A9684600F0DB
:1054D000A7FA30B12046FFF757FB00F08DFC002003
:1054E000D4E7FFF76FFCA06BE16B884213D1FFF7A5
:1054F0008DFC049904F11000FFF746FD2046FFF7EC
:1055000043FB00F079FC00289ED13E60BFF34F8F33
:10551000BFF36F8F98E7FFF779FC2046FFF734FB66
:1055200000F06AFC90E7000004ED00E02DE9F04790
:1055300004001F469046894603D0B9F1000F0AD0F7
:1055400015E0502072B680F31188BFF34F8FBFF380
:105550006F8F62B6FEE7206C48B1502072B680F3C0
:105560001188BFF34F8FBFF36F8F62B6FEE7022F34
:105570000CD1E06B012809D0502072B680F311885D
:10558000BFF34F8FBFF36F8F62B6FEE7FFF798FC54
:105590005020EFF3118672B680F31188BFF34F8F5E
:1055A000BFF36F8F62B6A06BE16B884206D3022F08
:1055B00004D0002086F31188BDE8F08794F94550A7
:1055C0003A4649462046FFF772F9681C04D06D1C24
:1055D00084F845500120EDE7606A0028FAD004F114
:1055E000240000F0CDFB0028F4D0B8F1000FF1D07A
:1055F0000121C8F80010EDE770B504000E460BD08D
:10560000206C98B1502072B680F31188BFF34F8F91
:10561000BFF36F8F62B6FEE7502072B680F3118839
:10562000BFF34F8FBFF36F8F62B6FEE7206858B9A4
:10563000A06848B1502072B680F31188BFF34F8F35
:10564000BFF36F8F62B6FEE7FFF73AFC5020EFF32F
:10565000118572B680F31188BFF34F8FBFF36F8F40
:1056600062B6D4E90E10884218D994F94500491C55
:10567000A163411C04D0401C84F8450001200EE0C9
:10568000606A0028FAD004F1240000F079FB0028B9
:10569000F4D0002EF2D001203060EFE7002085F337
:1056A000118870BD2DE9F74704008A4683B04FF09A
:1056B000000603D0BAF1000F0AD015E0502072B6F0
:1056C00080F31188BFF34F8FBFF36F8F62B6FEE791
:1056D000206C48B1502072B680F31188BFF34F8F11
:1056E000BFF36F8F62B6FEE700F036FADFF8F8809E
:1056F0004FF080574FF0000958B9059848B1502035
:1057000072B680F31188BFF34F8FBFF36F8F62B60D
:10571000FEE7FFF757FBA56BC5B151462046FFF7E3
:10572000B3F86D1EA563206950B104F1100000F0BC
:1057300027FB28B1C8F80070BFF34F8FBFF36F8FFE
:10574000FFF764FB012006B0BDE8F087059808B1BB
:105750001EB106E0FFF75AFB27E06846FFF706FC9C
:105760000126FFF753FBFFF7BDFCFFF72BFB94F976
:105770004400401C01D184F8449094F94500401C39
:1057800001D184F84590FFF741FB05A9684600F078
:1057900047F9002820460AD0FFF7F6F900F02CFB65
:1057A0002046FFF7BBF90028B3D00020CBE7FFF776
:1057B000B5F990B1059904F12400FFF7E5FB204607
:1057C000FFF7E2F900F018FB0028A2D1C8F800703A
:1057D000BFF34F8FBFF36F8F9BE72046FFF7D4F9DE
:1057E00000F00AFB95E7000004ED00E02DE9F0472A
:1057F00004009046894603D0B9F1000F0AD015E0A5
:10580000502072B680F31188BFF34F8FBFF36F8FB4
:1058100062B6FEE7206C48B1502072B680F3118862
:10582000BFF34F8FBFF36F8F62B6FEE7FFF748FB02
:105830005020EFF3118672B680F31188BFF34F8FBB
:10584000BFF36F8FA76B62B6FFB194F9445049461E
:105850002046FFF719F8681CA7F10107A76304D0D9
:105860006D1C84F84450012010E020690028FAD013
:1058700004F1100000F084FA0028F4D0B8F1000F11
:10588000F1D00121C8F80010EDE7002086F311885F
:10589000BDE8F0872DE9F3434FF0000604003546DC
:1058A00083B00BD0206C98B1502072B680F3118871
:1058B000BFF34F8FBFF36F8F62B6FEE7502072B613
:1058C00080F31188BFF34F8FBFF36F8F62B6FEE78F
:1058D00000F042F9DFF844814FF080574FF00009A3
:1058E00058B9049848B1502072B680F31188BFF3BC
:1058F0004F8FBFF36F8F62B6FEE7FFF763FAA06BBF
:10590000C8B12168401EA06311B9FFF7E5F9A06096
:10591000206950B104F1100000F032FA28B1C8F843
:105920000070BFF34F8FBFF36F8FFFF76FFA012047
:1059300005B0BDE8F083049808B176B111E04DB12F
:10594000502072B680F31188BFF34F8FBFF36F8F73
:1059500062B6FEE7FFF75AFA5EE06846FFF706FB1D
:105960000126FFF753FAFFF7BDFBFFF72BFA94F977
:105970004400401C01D184F8449094F94500401C37
:1059800001D184F84590FFF741FA04A9684600F078
:1059900047F80028204612D0FFF7F6F800F02CFA5E
:1059A0002046FFF7BBF80028A7D075B3FFF70AFA27
:1059B000606A58B3206B0068C0F1070128E0FFF768
:1059C000ADF8E0B1206838B9FFF7FCF9A06800F045
:1059D0008BF90546FFF71AFA049904F12400FFF742
:1059E000D3FA2046FFF7D0F800F006FA002884D159
:1059F000C8F80070BFF34F8FBFF36F8F7DE720466D
:105A0000FFF7C2F800F0F8F977E705E0FFE70021BB
:105A1000A068FFF7D3FA9DE7002089E704ED00E0D6
:105A20002DE9F04105000C4612D0DCB1FFF7CAF9B0
:105A30001A4E20687269471C6B68A2EB03011BD0E9
:105A40002F68B66AB74219D0934217D8012520E0D3
:105A5000502072B680F31188BFF34F8FBFF36F8F62
:105A600062B6FEE7502072B680F31188BFF34F8F05
:105A7000BFF36F8F62B6FEE700250AE0884205D9C2
:105A8000401A20602846FFF771FAF5E700202060F1
:105A90000125FFF7BBF92846BDE8F081A8000020EA
:105AA0002DE9FF5F994616468A4683469000DDE958
:105AB0000E87FFF79FF805001CD05420FFF79AF8D7
:105AC000040014D00020256384F851004B46CDE932
:105AD0000087CDE90240324651465846FEF7A8FFFE
